{
  "_format": "hh-sol-artifact-1",
  "contractName": "FunkyPizza",
  "sourceName": "contracts/FunkyPizza.sol",
  "abi": [
    {
      "inputs": [
        {
          "internalType": "string",
          "name": "_initBaseURI",
          "type": "string"
        }
      ],
      "stateMutability": "nonpayable",
      "type": "constructor"
    },
    {
      "anonymous": false,
      "inputs": [
        {
          "indexed": true,
          "internalType": "address",
          "name": "owner",
          "type": "address"
        },
        {
          "indexed": true,
          "internalType": "address",
          "name": "approved",
          "type": "address"
        },
        {
          "indexed": true,
          "internalType": "uint256",
          "name": "tokenId",
          "type": "uint256"
        }
      ],
      "name": "Approval",
      "type": "event"
    },
    {
      "anonymous": false,
      "inputs": [
        {
          "indexed": true,
          "internalType": "address",
          "name": "owner",
          "type": "address"
        },
        {
          "indexed": true,
          "internalType": "address",
          "name": "operator",
          "type": "address"
        },
        {
          "indexed": false,
          "internalType": "bool",
          "name": "approved",
          "type": "bool"
        }
      ],
      "name": "ApprovalForAll",
      "type": "event"
    },
    {
      "anonymous": false,
      "inputs": [
        {
          "indexed": true,
          "internalType": "address",
          "name": "previousOwner",
          "type": "address"
        },
        {
          "indexed": true,
          "internalType": "address",
          "name": "newOwner",
          "type": "address"
        }
      ],
      "name": "OwnershipTransferred",
      "type": "event"
    },
    {
      "anonymous": false,
      "inputs": [
        {
          "indexed": true,
          "internalType": "address",
          "name": "from",
          "type": "address"
        },
        {
          "indexed": true,
          "internalType": "address",
          "name": "to",
          "type": "address"
        },
        {
          "indexed": true,
          "internalType": "uint256",
          "name": "tokenId",
          "type": "uint256"
        }
      ],
      "name": "Transfer",
      "type": "event"
    },
    {
      "inputs": [
        {
          "internalType": "address",
          "name": "to",
          "type": "address"
        },
        {
          "internalType": "uint256",
          "name": "tokenId",
          "type": "uint256"
        }
      ],
      "name": "approve",
      "outputs": [],
      "stateMutability": "nonpayable",
      "type": "function"
    },
    {
      "inputs": [
        {
          "internalType": "address",
          "name": "owner",
          "type": "address"
        }
      ],
      "name": "balanceOf",
      "outputs": [
        {
          "internalType": "uint256",
          "name": "",
          "type": "uint256"
        }
      ],
      "stateMutability": "view",
      "type": "function"
    },
    {
      "inputs": [],
      "name": "baseURI",
      "outputs": [
        {
          "internalType": "string",
          "name": "",
          "type": "string"
        }
      ],
      "stateMutability": "view",
      "type": "function"
    },
    {
      "inputs": [
        {
          "internalType": "uint256",
          "name": "tokenId",
          "type": "uint256"
        }
      ],
      "name": "getApproved",
      "outputs": [
        {
          "internalType": "address",
          "name": "",
          "type": "address"
        }
      ],
      "stateMutability": "view",
      "type": "function"
    },
    {
      "inputs": [
        {
          "internalType": "address",
          "name": "owner",
          "type": "address"
        },
        {
          "internalType": "address",
          "name": "operator",
          "type": "address"
        }
      ],
      "name": "isApprovedForAll",
      "outputs": [
        {
          "internalType": "bool",
          "name": "",
          "type": "bool"
        }
      ],
      "stateMutability": "view",
      "type": "function"
    },
    {
      "inputs": [],
      "name": "maxPerMint",
      "outputs": [
        {
          "internalType": "uint256",
          "name": "",
          "type": "uint256"
        }
      ],
      "stateMutability": "view",
      "type": "function"
    },
    {
      "inputs": [],
      "name": "max_supply",
      "outputs": [
        {
          "internalType": "uint256",
          "name": "",
          "type": "uint256"
        }
      ],
      "stateMutability": "view",
      "type": "function"
    },
    {
      "inputs": [
        {
          "internalType": "uint256",
          "name": "_mintAmount",
          "type": "uint256"
        }
      ],
      "name": "mint",
      "outputs": [],
      "stateMutability": "payable",
      "type": "function"
    },
    {
      "inputs": [],
      "name": "name",
      "outputs": [
        {
          "internalType": "string",
          "name": "",
          "type": "string"
        }
      ],
      "stateMutability": "view",
      "type": "function"
    },
    {
      "inputs": [],
      "name": "owner",
      "outputs": [
        {
          "internalType": "address",
          "name": "",
          "type": "address"
        }
      ],
      "stateMutability": "view",
      "type": "function"
    },
    {
      "inputs": [
        {
          "internalType": "uint256",
          "name": "tokenId",
          "type": "uint256"
        }
      ],
      "name": "ownerOf",
      "outputs": [
        {
          "internalType": "address",
          "name": "",
          "type": "address"
        }
      ],
      "stateMutability": "view",
      "type": "function"
    },
    {
      "inputs": [
        {
          "internalType": "bool",
          "name": "_state",
          "type": "bool"
        }
      ],
      "name": "pause",
      "outputs": [],
      "stateMutability": "nonpayable",
      "type": "function"
    },
    {
      "inputs": [],
      "name": "paused",
      "outputs": [
        {
          "internalType": "bool",
          "name": "",
          "type": "bool"
        }
      ],
      "stateMutability": "view",
      "type": "function"
    },
    {
      "inputs": [],
      "name": "price",
      "outputs": [
        {
          "internalType": "uint256",
          "name": "",
          "type": "uint256"
        }
      ],
      "stateMutability": "view",
      "type": "function"
    },
    {
      "inputs": [],
      "name": "renounceOwnership",
      "outputs": [],
      "stateMutability": "nonpayable",
      "type": "function"
    },
    {
      "inputs": [
        {
          "internalType": "address",
          "name": "_wallet",
          "type": "address"
        },
        {
          "internalType": "uint256",
          "name": "_mintAmount",
          "type": "uint256"
        }
      ],
      "name": "reserve",
      "outputs": [],
      "stateMutability": "nonpayable",
      "type": "function"
    },
    {
      "inputs": [
        {
          "internalType": "address",
          "name": "from",
          "type": "address"
        },
        {
          "internalType": "address",
          "name": "to",
          "type": "address"
        },
        {
          "internalType": "uint256",
          "name": "tokenId",
          "type": "uint256"
        }
      ],
      "name": "safeTransferFrom",
      "outputs": [],
      "stateMutability": "nonpayable",
      "type": "function"
    },
    {
      "inputs": [
        {
          "internalType": "address",
          "name": "from",
          "type": "address"
        },
        {
          "internalType": "address",
          "name": "to",
          "type": "address"
        },
        {
          "internalType": "uint256",
          "name": "tokenId",
          "type": "uint256"
        },
        {
          "internalType": "bytes",
          "name": "_data",
          "type": "bytes"
        }
      ],
      "name": "safeTransferFrom",
      "outputs": [],
      "stateMutability": "nonpayable",
      "type": "function"
    },
    {
      "inputs": [
        {
          "internalType": "address",
          "name": "operator",
          "type": "address"
        },
        {
          "internalType": "bool",
          "name": "approved",
          "type": "bool"
        }
      ],
      "name": "setApprovalForAll",
      "outputs": [],
      "stateMutability": "nonpayable",
      "type": "function"
    },
    {
      "inputs": [
        {
          "internalType": "string",
          "name": "_newBaseURI",
          "type": "string"
        }
      ],
      "name": "setBaseURI",
      "outputs": [],
      "stateMutability": "nonpayable",
      "type": "function"
    },
    {
      "inputs": [
        {
          "internalType": "uint256",
          "name": "_newMaxPerMint",
          "type": "uint256"
        }
      ],
      "name": "setMaxPerMint",
      "outputs": [],
      "stateMutability": "nonpayable",
      "type": "function"
    },
    {
      "inputs": [
        {
          "internalType": "uint256",
          "name": "_newPrice",
          "type": "uint256"
        }
      ],
      "name": "setPrice",
      "outputs": [],
      "stateMutability": "nonpayable",
      "type": "function"
    },
    {
      "inputs": [
        {
          "internalType": "bytes4",
          "name": "interfaceId",
          "type": "bytes4"
        }
      ],
      "name": "supportsInterface",
      "outputs": [
        {
          "internalType": "bool",
          "name": "",
          "type": "bool"
        }
      ],
      "stateMutability": "view",
      "type": "function"
    },
    {
      "inputs": [],
      "name": "symbol",
      "outputs": [
        {
          "internalType": "string",
          "name": "",
          "type": "string"
        }
      ],
      "stateMutability": "view",
      "type": "function"
    },
    {
      "inputs": [
        {
          "internalType": "uint256",
          "name": "index",
          "type": "uint256"
        }
      ],
      "name": "tokenByIndex",
      "outputs": [
        {
          "internalType": "uint256",
          "name": "",
          "type": "uint256"
        }
      ],
      "stateMutability": "view",
      "type": "function"
    },
    {
      "inputs": [
        {
          "internalType": "address",
          "name": "owner",
          "type": "address"
        },
        {
          "internalType": "uint256",
          "name": "index",
          "type": "uint256"
        }
      ],
      "name": "tokenOfOwnerByIndex",
      "outputs": [
        {
          "internalType": "uint256",
          "name": "",
          "type": "uint256"
        }
      ],
      "stateMutability": "view",
      "type": "function"
    },
    {
      "inputs": [
        {
          "internalType": "uint256",
          "name": "tokenId",
          "type": "uint256"
        }
      ],
      "name": "tokenURI",
      "outputs": [
        {
          "internalType": "string",
          "name": "",
          "type": "string"
        }
      ],
      "stateMutability": "view",
      "type": "function"
    },
    {
      "inputs": [],
      "name": "totalSupply",
      "outputs": [
        {
          "internalType": "uint256",
          "name": "",
          "type": "uint256"
        }
      ],
      "stateMutability": "view",
      "type": "function"
    },
    {
      "inputs": [
        {
          "internalType": "address",
          "name": "from",
          "type": "address"
        },
        {
          "internalType": "address",
          "name": "to",
          "type": "address"
        },
        {
          "internalType": "uint256",
          "name": "tokenId",
          "type": "uint256"
        }
      ],
      "name": "transferFrom",
      "outputs": [],
      "stateMutability": "nonpayable",
      "type": "function"
    },
    {
      "inputs": [
        {
          "internalType": "address",
          "name": "newOwner",
          "type": "address"
        }
      ],
      "name": "transferOwnership",
      "outputs": [],
      "stateMutability": "nonpayable",
      "type": "function"
    },
    {
      "inputs": [],
      "name": "withdraw",
      "outputs": [],
      "stateMutability": "nonpayable",
      "type": "function"
    }
  ],
  "bytecode": "0x6080604052600c805460ff191690556005600d5566128b8ff5ba4000600e553480156200002b57600080fd5b50604051620026b2380380620026b28339810160408190526200004e916200026c565b604080518082018252600a81526946756e6b7950697a7a6160b01b60208083019182528351808501909452600584526446554e4b5960d81b9084015281519192916200009d91600091620001b0565b508051620000b3906001906020840190620001b0565b505050620000d0620000ca620000e260201b60201c565b620000e6565b620000db8162000138565b5062000384565b3390565b600a80546001600160a01b038381166001600160a01b0319831681179093556040519116919082907f8be0079c531659141344cd1fd0a4f28419497f9722a3daafe3b4186f6b6457e090600090a35050565b600a546001600160a01b03163314620001975760405162461bcd60e51b815260206004820181905260248201527f4f776e61626c653a2063616c6c6572206973206e6f7420746865206f776e6572604482015260640160405180910390fd5b8051620001ac90600f906020840190620001b0565b5050565b828054620001be9062000348565b90600052602060002090601f016020900481019282620001e257600085556200022d565b82601f10620001fd57805160ff19168380011785556200022d565b828001600101855582156200022d579182015b828111156200022d57825182559160200191906001019062000210565b506200023b9291506200023f565b5090565b5b808211156200023b576000815560010162000240565b634e487b7160e01b600052604160045260246000fd5b600060208083850312156200028057600080fd5b82516001600160401b03808211156200029857600080fd5b818501915085601f830112620002ad57600080fd5b815181811115620002c257620002c262000256565b604051601f8201601f19908116603f01168101908382118183101715620002ed57620002ed62000256565b8160405282815288868487010111156200030657600080fd5b600093505b828410156200032a57848401860151818501870152928501926200030b565b828411156200033c5760008684830101525b98975050505050505050565b600181811c908216806200035d57607f821691505b6020821081036200037e57634e487b7160e01b600052602260045260246000fd5b50919050565b61231e80620003946000396000f3fe6080604052600436106101d85760003560e01c80636c0360eb11610102578063a0712d6811610095578063cc47a40b11610064578063cc47a40b1461050e578063db6242c31461052e578063e985e9c51461054e578063f2fde38b1461059757600080fd5b8063a0712d681461049b578063a22cb465146104ae578063b88d4fde146104ce578063c87b56dd146104ee57600080fd5b80638da5cb5b116100d15780638da5cb5b1461043257806391b7f5ed1461045057806395d89b4114610470578063a035b1fe1461048557600080fd5b80636c0360eb146103d257806370a08231146103e7578063715018a6146104075780638a333b501461041c57600080fd5b80632f745c591161017a578063507e094f11610149578063507e094f1461036257806355f804b3146103785780635c975abb146103985780636352211e146103b257600080fd5b80632f745c59146102ed5780633ccfd60b1461030d57806342842e0e146103225780634f6ccce71461034257600080fd5b8063081812fc116101b6578063081812fc14610256578063095ea7b31461028e57806318160ddd146102ae57806323b872dd146102cd57600080fd5b806301ffc9a7146101dd57806302329a291461021257806306fdde0314610234575b600080fd5b3480156101e957600080fd5b506101fd6101f8366004611d0e565b6105b7565b60405190151581526020015b60405180910390f35b34801561021e57600080fd5b5061023261022d366004611d40565b6105e2565b005b34801561024057600080fd5b50610249610628565b6040516102099190611db3565b34801561026257600080fd5b50610276610271366004611dc6565b6106ba565b6040516001600160a01b039091168152602001610209565b34801561029a57600080fd5b506102326102a9366004611df6565b61074f565b3480156102ba57600080fd5b506008545b604051908152602001610209565b3480156102d957600080fd5b506102326102e8366004611e20565b610864565b3480156102f957600080fd5b506102bf610308366004611df6565b610895565b34801561031957600080fd5b5061023261092b565b34801561032e57600080fd5b5061023261033d366004611e20565b610a16565b34801561034e57600080fd5b506102bf61035d366004611dc6565b610a31565b34801561036e57600080fd5b506102bf600d5481565b34801561038457600080fd5b50610232610393366004611ee8565b610ac4565b3480156103a457600080fd5b50600c546101fd9060ff1681565b3480156103be57600080fd5b506102766103cd366004611dc6565b610b05565b3480156103de57600080fd5b50610249610b7c565b3480156103f357600080fd5b506102bf610402366004611f31565b610c0a565b34801561041357600080fd5b50610232610c91565b34801561042857600080fd5b506102bf61089d81565b34801561043e57600080fd5b50600a546001600160a01b0316610276565b34801561045c57600080fd5b5061023261046b366004611dc6565b610cc7565b34801561047c57600080fd5b50610249610cf6565b34801561049157600080fd5b506102bf600e5481565b6102326104a9366004611dc6565b610d05565b3480156104ba57600080fd5b506102326104c9366004611f4c565b610ef0565b3480156104da57600080fd5b506102326104e9366004611f7f565b610efb565b3480156104fa57600080fd5b50610249610509366004611dc6565b610f33565b34801561051a57600080fd5b50610232610529366004611df6565b61100e565b34801561053a57600080fd5b50610232610549366004611dc6565b6110f5565b34801561055a57600080fd5b506101fd610569366004611ffb565b6001600160a01b03918216600090815260056020908152604080832093909416825291909152205460ff1690565b3480156105a357600080fd5b506102326105b2366004611f31565b611124565b60006001600160e01b0319821663780e9d6360e01b14806105dc57506105dc826111bc565b92915050565b600a546001600160a01b031633146106155760405162461bcd60e51b815260040161060c90612025565b60405180910390fd5b600c805460ff1916911515919091179055565b6060600080546106379061205a565b80601f01602080910402602001604051908101604052809291908181526020018280546106639061205a565b80156106b05780601f10610685576101008083540402835291602001916106b0565b820191906000526020600020905b81548152906001019060200180831161069357829003601f168201915b5050505050905090565b6000818152600260205260408120546001600160a01b03166107335760405162461bcd60e51b815260206004820152602c60248201527f4552433732313a20617070726f76656420717565727920666f72206e6f6e657860448201526b34b9ba32b73a103a37b5b2b760a11b606482015260840161060c565b506000908152600460205260409020546001600160a01b031690565b600061075a82610b05565b9050806001600160a01b0316836001600160a01b0316036107c75760405162461bcd60e51b815260206004820152602160248201527f4552433732313a20617070726f76616c20746f2063757272656e74206f776e656044820152603960f91b606482015260840161060c565b336001600160a01b03821614806107e357506107e38133610569565b6108555760405162461bcd60e51b815260206004820152603860248201527f4552433732313a20617070726f76652063616c6c6572206973206e6f74206f7760448201527f6e6572206e6f7220617070726f76656420666f7220616c6c0000000000000000606482015260840161060c565b61085f838361120c565b505050565b61086e338261127a565b61088a5760405162461bcd60e51b815260040161060c90612094565b61085f838383611371565b60006108a083610c0a565b82106109025760405162461bcd60e51b815260206004820152602b60248201527f455243373231456e756d657261626c653a206f776e657220696e646578206f7560448201526a74206f6620626f756e647360a81b606482015260840161060c565b506001600160a01b03919091166000908152600660209081526040808320938352929052205490565b600a546001600160a01b031633146109555760405162461bcd60e51b815260040161060c90612025565b6000610969600a546001600160a01b031690565b6001600160a01b03164760405160006040518083038185875af1925050503d80600081146109b3576040519150601f19603f3d011682016040523d82523d6000602084013e6109b8565b606091505b5050905080610a135760405162461bcd60e51b815260206004820152602160248201527f4661696c656420746f2073656e6420657468657220746f20746865206f776e656044820152603960f91b606482015260840161060c565b50565b61085f83838360405180602001604052806000815250610efb565b6000610a3c60085490565b8210610a9f5760405162461bcd60e51b815260206004820152602c60248201527f455243373231456e756d657261626c653a20676c6f62616c20696e646578206f60448201526b7574206f6620626f756e647360a01b606482015260840161060c565b60088281548110610ab257610ab26120e5565b90600052602060002001549050919050565b600a546001600160a01b03163314610aee5760405162461bcd60e51b815260040161060c90612025565b8051610b0190600f906020840190611c5f565b5050565b6000818152600260205260408120546001600160a01b0316806105dc5760405162461bcd60e51b815260206004820152602960248201527f4552433732313a206f776e657220717565727920666f72206e6f6e657869737460448201526832b73a103a37b5b2b760b91b606482015260840161060c565b600f8054610b899061205a565b80601f0160208091040260200160405190810160405280929190818152602001828054610bb59061205a565b8015610c025780601f10610bd757610100808354040283529160200191610c02565b820191906000526020600020905b815481529060010190602001808311610be557829003601f168201915b505050505081565b60006001600160a01b038216610c755760405162461bcd60e51b815260206004820152602a60248201527f4552433732313a2062616c616e636520717565727920666f7220746865207a65604482015269726f206164647265737360b01b606482015260840161060c565b506001600160a01b031660009081526003602052604090205490565b600a546001600160a01b03163314610cbb5760405162461bcd60e51b815260040161060c90612025565b610cc56000611518565b565b600a546001600160a01b03163314610cf15760405162461bcd60e51b815260040161060c90612025565b600e55565b6060600180546106379061205a565b600c5460ff1615610d495760405162461bcd60e51b815260206004820152600e60248201526d135a5b9d081a5cc81c185d5cd95960921b604482015260640161060c565b60008111610d695760405162461bcd60e51b815260040161060c906120fb565b600d54811115610de15760405162461bcd60e51b815260206004820152603960248201527f4d696e7420616d6f756e74206d757374206265206c657373207468616e206f7260448201527f20657175616c20746f206d6178206d696e7420616d6f756e7400000000000000606482015260840161060c565b80600e54610def9190612152565b341015610e4e5760405162461bcd60e51b815260206004820152602760248201527f4e6f7420656e6f7567682045544820737570706c69656420666f72207472616e60448201526639b0b1ba34b7b760c91b606482015260840161060c565b61089d81610e5b600b5490565b610e659190612171565b1115610eb35760405162461bcd60e51b815260206004820152601d60248201527f4e6f7420656e6f75676820737570706c7920666f72206d696e74696e67000000604482015260640161060c565b60005b81811015610b0157610ecc600b80546001019055565b610ede33610ed9600b5490565b61156a565b80610ee881612189565b915050610eb6565b610b01338383611584565b610f05338361127a565b610f215760405162461bcd60e51b815260040161060c90612094565b610f2d84848484611652565b50505050565b6000818152600260205260409020546060906001600160a01b0316610fb25760405162461bcd60e51b815260206004820152602f60248201527f4552433732314d657461646174613a2055524920717565727920666f72206e6f60448201526e3732bc34b9ba32b73a103a37b5b2b760891b606482015260840161060c565b6000610fbc611685565b90506000815111610fdc5760405180602001604052806000815250611007565b80610fe684611694565b604051602001610ff79291906121a2565b6040516020818303038152906040525b9392505050565b600a546001600160a01b031633146110385760405162461bcd60e51b815260040161060c90612025565b600081116110585760405162461bcd60e51b815260040161060c906120fb565b61089d81611065600b5490565b61106f9190612171565b11156110bd5760405162461bcd60e51b815260206004820152601f60248201527f4e6f7420656e6f75676820737570706c7920666f7220726573657276696e6700604482015260640161060c565b60005b8181101561085f576110d6600b80546001019055565b6110e383610ed9600b5490565b806110ed81612189565b9150506110c0565b600a546001600160a01b0316331461111f5760405162461bcd60e51b815260040161060c90612025565b600d55565b600a546001600160a01b0316331461114e5760405162461bcd60e51b815260040161060c90612025565b6001600160a01b0381166111b35760405162461bcd60e51b815260206004820152602660248201527f4f776e61626c653a206e6577206f776e657220697320746865207a65726f206160448201526564647265737360d01b606482015260840161060c565b610a1381611518565b60006001600160e01b031982166380ac58cd60e01b14806111ed57506001600160e01b03198216635b5e139f60e01b145b806105dc57506301ffc9a760e01b6001600160e01b03198316146105dc565b600081815260046020526040902080546001600160a01b0319166001600160a01b038416908117909155819061124182610b05565b6001600160a01b03167f8c5be1e5ebec7d5bd14f71427d1e84f3dd0314c0f7b2291e5b200ac8c7c3b92560405160405180910390a45050565b6000818152600260205260408120546001600160a01b03166112f35760405162461bcd60e51b815260206004820152602c60248201527f4552433732313a206f70657261746f7220717565727920666f72206e6f6e657860448201526b34b9ba32b73a103a37b5b2b760a11b606482015260840161060c565b60006112fe83610b05565b9050806001600160a01b0316846001600160a01b0316148061134557506001600160a01b0380821660009081526005602090815260408083209388168352929052205460ff165b806113695750836001600160a01b031661135e846106ba565b6001600160a01b0316145b949350505050565b826001600160a01b031661138482610b05565b6001600160a01b0316146113e85760405162461bcd60e51b815260206004820152602560248201527f4552433732313a207472616e736665722066726f6d20696e636f72726563742060448201526437bbb732b960d91b606482015260840161060c565b6001600160a01b03821661144a5760405162461bcd60e51b8152602060048201526024808201527f4552433732313a207472616e7366657220746f20746865207a65726f206164646044820152637265737360e01b606482015260840161060c565b611455838383611795565b61146060008261120c565b6001600160a01b03831660009081526003602052604081208054600192906114899084906121d1565b90915550506001600160a01b03821660009081526003602052604081208054600192906114b7908490612171565b909155505060008181526002602052604080822080546001600160a01b0319166001600160a01b0386811691821790925591518493918716917fddf252ad1be2c89b69c2b068fc378daa952ba7f163c4a11628f55a4df523b3ef91a4505050565b600a80546001600160a01b038381166001600160a01b0319831681179093556040519116919082907f8be0079c531659141344cd1fd0a4f28419497f9722a3daafe3b4186f6b6457e090600090a35050565b610b0182826040518060200160405280600081525061184d565b816001600160a01b0316836001600160a01b0316036115e55760405162461bcd60e51b815260206004820152601960248201527f4552433732313a20617070726f766520746f2063616c6c657200000000000000604482015260640161060c565b6001600160a01b03838116600081815260056020908152604080832094871680845294825291829020805460ff191686151590811790915591519182527f17307eab39ab6107e8899845ad3d59bd9653f200f220920489ca2b5937696c31910160405180910390a3505050565b61165d848484611371565b61166984848484611880565b610f2d5760405162461bcd60e51b815260040161060c906121e8565b6060600f80546106379061205a565b6060816000036116bb5750506040805180820190915260018152600360fc1b602082015290565b8160005b81156116e557806116cf81612189565b91506116de9050600a83612250565b91506116bf565b60008167ffffffffffffffff81111561170057611700611e5c565b6040519080825280601f01601f19166020018201604052801561172a576020820181803683370190505b5090505b84156113695761173f6001836121d1565b915061174c600a86612264565b611757906030612171565b60f81b81838151811061176c5761176c6120e5565b60200101906001600160f81b031916908160001a90535061178e600a86612250565b945061172e565b6001600160a01b0383166117f0576117eb81600880546000838152600960205260408120829055600182018355919091527ff3f7a9fe364faab93b216da50a3214154f22a0a2b415b23a84c8169e8b636ee30155565b611813565b816001600160a01b0316836001600160a01b031614611813576118138382611981565b6001600160a01b03821661182a5761085f81611a1e565b826001600160a01b0316826001600160a01b03161461085f5761085f8282611acd565b6118578383611b11565b6118646000848484611880565b61085f5760405162461bcd60e51b815260040161060c906121e8565b60006001600160a01b0384163b1561197657604051630a85bd0160e11b81526001600160a01b0385169063150b7a02906118c4903390899088908890600401612278565b6020604051808303816000875af19250505080156118ff575060408051601f3d908101601f191682019092526118fc918101906122b5565b60015b61195c573d80801561192d576040519150601f19603f3d011682016040523d82523d6000602084013e611932565b606091505b5080516000036119545760405162461bcd60e51b815260040161060c906121e8565b805181602001fd5b6001600160e01b031916630a85bd0160e11b149050611369565b506001949350505050565b6000600161198e84610c0a565b61199891906121d1565b6000838152600760205260409020549091508082146119eb576001600160a01b03841660009081526006602090815260408083208584528252808320548484528184208190558352600790915290208190555b5060009182526007602090815260408084208490556001600160a01b039094168352600681528383209183525290812055565b600854600090611a30906001906121d1565b60008381526009602052604081205460088054939450909284908110611a5857611a586120e5565b906000526020600020015490508060088381548110611a7957611a796120e5565b6000918252602080832090910192909255828152600990915260408082208490558582528120556008805480611ab157611ab16122d2565b6001900381819060005260206000200160009055905550505050565b6000611ad883610c0a565b6001600160a01b039093166000908152600660209081526040808320868452825280832085905593825260079052919091209190915550565b6001600160a01b038216611b675760405162461bcd60e51b815260206004820181905260248201527f4552433732313a206d696e7420746f20746865207a65726f2061646472657373604482015260640161060c565b6000818152600260205260409020546001600160a01b031615611bcc5760405162461bcd60e51b815260206004820152601c60248201527f4552433732313a20746f6b656e20616c7265616479206d696e74656400000000604482015260640161060c565b611bd860008383611795565b6001600160a01b0382166000908152600360205260408120805460019290611c01908490612171565b909155505060008181526002602052604080822080546001600160a01b0319166001600160a01b03861690811790915590518392907fddf252ad1be2c89b69c2b068fc378daa952ba7f163c4a11628f55a4df523b3ef908290a45050565b828054611c6b9061205a565b90600052602060002090601f016020900481019282611c8d5760008555611cd3565b82601f10611ca657805160ff1916838001178555611cd3565b82800160010185558215611cd3579182015b82811115611cd3578251825591602001919060010190611cb8565b50611cdf929150611ce3565b5090565b5b80821115611cdf5760008155600101611ce4565b6001600160e01b031981168114610a1357600080fd5b600060208284031215611d2057600080fd5b813561100781611cf8565b80358015158114611d3b57600080fd5b919050565b600060208284031215611d5257600080fd5b61100782611d2b565b60005b83811015611d76578181015183820152602001611d5e565b83811115610f2d5750506000910152565b60008151808452611d9f816020860160208601611d5b565b601f01601f19169290920160200192915050565b6020815260006110076020830184611d87565b600060208284031215611dd857600080fd5b5035919050565b80356001600160a01b0381168114611d3b57600080fd5b60008060408385031215611e0957600080fd5b611e1283611ddf565b946020939093013593505050565b600080600060608486031215611e3557600080fd5b611e3e84611ddf565b9250611e4c60208501611ddf565b9150604084013590509250925092565b634e487b7160e01b600052604160045260246000fd5b600067ffffffffffffffff80841115611e8d57611e8d611e5c565b604051601f8501601f19908116603f01168101908282118183101715611eb557611eb5611e5c565b81604052809350858152868686011115611ece57600080fd5b858560208301376000602087830101525050509392505050565b600060208284031215611efa57600080fd5b813567ffffffffffffffff811115611f1157600080fd5b8201601f81018413611f2257600080fd5b61136984823560208401611e72565b600060208284031215611f4357600080fd5b61100782611ddf565b60008060408385031215611f5f57600080fd5b611f6883611ddf565b9150611f7660208401611d2b565b90509250929050565b60008060008060808587031215611f9557600080fd5b611f9e85611ddf565b9350611fac60208601611ddf565b925060408501359150606085013567ffffffffffffffff811115611fcf57600080fd5b8501601f81018713611fe057600080fd5b611fef87823560208401611e72565b91505092959194509250565b6000806040838503121561200e57600080fd5b61201783611ddf565b9150611f7660208401611ddf565b6020808252818101527f4f776e61626c653a2063616c6c6572206973206e6f7420746865206f776e6572604082015260600190565b600181811c9082168061206e57607f821691505b60208210810361208e57634e487b7160e01b600052602260045260246000fd5b50919050565b60208082526031908201527f4552433732313a207472616e736665722063616c6c6572206973206e6f74206f6040820152701ddb995c881b9bdc88185c1c1c9bdd9959607a1b606082015260800190565b634e487b7160e01b600052603260045260246000fd5b60208082526021908201527f4d757374206d696e74206174206c65617374206f6e652046756e6b7950697a7a6040820152606160f81b606082015260800190565b634e487b7160e01b600052601160045260246000fd5b600081600019048311821515161561216c5761216c61213c565b500290565b600082198211156121845761218461213c565b500190565b60006001820161219b5761219b61213c565b5060010190565b600083516121b4818460208801611d5b565b8351908301906121c8818360208801611d5b565b01949350505050565b6000828210156121e3576121e361213c565b500390565b60208082526032908201527f4552433732313a207472616e7366657220746f206e6f6e20455243373231526560408201527131b2b4bb32b91034b6b83632b6b2b73a32b960711b606082015260800190565b634e487b7160e01b600052601260045260246000fd5b60008261225f5761225f61223a565b500490565b6000826122735761227361223a565b500690565b6001600160a01b03858116825284166020820152604081018390526080606082018190526000906122ab90830184611d87565b9695505050505050565b6000602082840312156122c757600080fd5b815161100781611cf8565b634e487b7160e01b600052603160045260246000fdfea264697066735822122049227d44c27322e42fc54664abe072d41b3e62a05aba13ebc40f5efe72379c8164736f6c634300080e0033",
  "linkReferences": {},
  "deployedLinkReferences": {}
}