{
  "_format": "hh-sol-artifact-1",
  "contractName": "FunkyPizza",
  "sourceName": "contracts/FunkyPizza.sol",
  "abi": [
    {
      "inputs": [
        {
          "internalType": "string",
          "name": "_initBaseURI",
          "type": "string"
        },
        {
          "internalType": "string",
          "name": "_initNotRevealedURI",
          "type": "string"
        }
      ],
      "stateMutability": "nonpayable",
      "type": "constructor"
    },
    {
      "anonymous": false,
      "inputs": [
        {
          "indexed": true,
          "internalType": "address",
          "name": "owner",
          "type": "address"
        },
        {
          "indexed": true,
          "internalType": "address",
          "name": "approved",
          "type": "address"
        },
        {
          "indexed": true,
          "internalType": "uint256",
          "name": "tokenId",
          "type": "uint256"
        }
      ],
      "name": "Approval",
      "type": "event"
    },
    {
      "anonymous": false,
      "inputs": [
        {
          "indexed": true,
          "internalType": "address",
          "name": "owner",
          "type": "address"
        },
        {
          "indexed": true,
          "internalType": "address",
          "name": "operator",
          "type": "address"
        },
        {
          "indexed": false,
          "internalType": "bool",
          "name": "approved",
          "type": "bool"
        }
      ],
      "name": "ApprovalForAll",
      "type": "event"
    },
    {
      "anonymous": false,
      "inputs": [
        {
          "indexed": true,
          "internalType": "address",
          "name": "previousOwner",
          "type": "address"
        },
        {
          "indexed": true,
          "internalType": "address",
          "name": "newOwner",
          "type": "address"
        }
      ],
      "name": "OwnershipTransferred",
      "type": "event"
    },
    {
      "anonymous": false,
      "inputs": [
        {
          "indexed": true,
          "internalType": "address",
          "name": "from",
          "type": "address"
        },
        {
          "indexed": true,
          "internalType": "address",
          "name": "to",
          "type": "address"
        },
        {
          "indexed": true,
          "internalType": "uint256",
          "name": "tokenId",
          "type": "uint256"
        }
      ],
      "name": "Transfer",
      "type": "event"
    },
    {
      "inputs": [
        {
          "internalType": "address",
          "name": "to",
          "type": "address"
        },
        {
          "internalType": "uint256",
          "name": "tokenId",
          "type": "uint256"
        }
      ],
      "name": "approve",
      "outputs": [],
      "stateMutability": "nonpayable",
      "type": "function"
    },
    {
      "inputs": [
        {
          "internalType": "address",
          "name": "owner",
          "type": "address"
        }
      ],
      "name": "balanceOf",
      "outputs": [
        {
          "internalType": "uint256",
          "name": "",
          "type": "uint256"
        }
      ],
      "stateMutability": "view",
      "type": "function"
    },
    {
      "inputs": [],
      "name": "baseExtension",
      "outputs": [
        {
          "internalType": "string",
          "name": "",
          "type": "string"
        }
      ],
      "stateMutability": "view",
      "type": "function"
    },
    {
      "inputs": [],
      "name": "baseURI",
      "outputs": [
        {
          "internalType": "string",
          "name": "",
          "type": "string"
        }
      ],
      "stateMutability": "view",
      "type": "function"
    },
    {
      "inputs": [
        {
          "internalType": "uint256",
          "name": "tokenId",
          "type": "uint256"
        }
      ],
      "name": "getApproved",
      "outputs": [
        {
          "internalType": "address",
          "name": "",
          "type": "address"
        }
      ],
      "stateMutability": "view",
      "type": "function"
    },
    {
      "inputs": [
        {
          "internalType": "address",
          "name": "owner",
          "type": "address"
        },
        {
          "internalType": "address",
          "name": "operator",
          "type": "address"
        }
      ],
      "name": "isApprovedForAll",
      "outputs": [
        {
          "internalType": "bool",
          "name": "",
          "type": "bool"
        }
      ],
      "stateMutability": "view",
      "type": "function"
    },
    {
      "inputs": [],
      "name": "maxPerMint",
      "outputs": [
        {
          "internalType": "uint256",
          "name": "",
          "type": "uint256"
        }
      ],
      "stateMutability": "view",
      "type": "function"
    },
    {
      "inputs": [],
      "name": "max_supply",
      "outputs": [
        {
          "internalType": "uint256",
          "name": "",
          "type": "uint256"
        }
      ],
      "stateMutability": "view",
      "type": "function"
    },
    {
      "inputs": [
        {
          "internalType": "uint256",
          "name": "_mintAmount",
          "type": "uint256"
        }
      ],
      "name": "mint",
      "outputs": [],
      "stateMutability": "payable",
      "type": "function"
    },
    {
      "inputs": [],
      "name": "name",
      "outputs": [
        {
          "internalType": "string",
          "name": "",
          "type": "string"
        }
      ],
      "stateMutability": "view",
      "type": "function"
    },
    {
      "inputs": [],
      "name": "notRevealedURI",
      "outputs": [
        {
          "internalType": "string",
          "name": "",
          "type": "string"
        }
      ],
      "stateMutability": "view",
      "type": "function"
    },
    {
      "inputs": [],
      "name": "owner",
      "outputs": [
        {
          "internalType": "address",
          "name": "",
          "type": "address"
        }
      ],
      "stateMutability": "view",
      "type": "function"
    },
    {
      "inputs": [
        {
          "internalType": "uint256",
          "name": "tokenId",
          "type": "uint256"
        }
      ],
      "name": "ownerOf",
      "outputs": [
        {
          "internalType": "address",
          "name": "",
          "type": "address"
        }
      ],
      "stateMutability": "view",
      "type": "function"
    },
    {
      "inputs": [
        {
          "internalType": "bool",
          "name": "_state",
          "type": "bool"
        }
      ],
      "name": "pause",
      "outputs": [],
      "stateMutability": "nonpayable",
      "type": "function"
    },
    {
      "inputs": [],
      "name": "paused",
      "outputs": [
        {
          "internalType": "bool",
          "name": "",
          "type": "bool"
        }
      ],
      "stateMutability": "view",
      "type": "function"
    },
    {
      "inputs": [],
      "name": "price",
      "outputs": [
        {
          "internalType": "uint256",
          "name": "",
          "type": "uint256"
        }
      ],
      "stateMutability": "view",
      "type": "function"
    },
    {
      "inputs": [],
      "name": "renounceOwnership",
      "outputs": [],
      "stateMutability": "nonpayable",
      "type": "function"
    },
    {
      "inputs": [
        {
          "internalType": "bool",
          "name": "_state",
          "type": "bool"
        }
      ],
      "name": "reveal",
      "outputs": [],
      "stateMutability": "nonpayable",
      "type": "function"
    },
    {
      "inputs": [],
      "name": "revealed",
      "outputs": [
        {
          "internalType": "bool",
          "name": "",
          "type": "bool"
        }
      ],
      "stateMutability": "view",
      "type": "function"
    },
    {
      "inputs": [
        {
          "internalType": "address",
          "name": "from",
          "type": "address"
        },
        {
          "internalType": "address",
          "name": "to",
          "type": "address"
        },
        {
          "internalType": "uint256",
          "name": "tokenId",
          "type": "uint256"
        }
      ],
      "name": "safeTransferFrom",
      "outputs": [],
      "stateMutability": "nonpayable",
      "type": "function"
    },
    {
      "inputs": [
        {
          "internalType": "address",
          "name": "from",
          "type": "address"
        },
        {
          "internalType": "address",
          "name": "to",
          "type": "address"
        },
        {
          "internalType": "uint256",
          "name": "tokenId",
          "type": "uint256"
        },
        {
          "internalType": "bytes",
          "name": "_data",
          "type": "bytes"
        }
      ],
      "name": "safeTransferFrom",
      "outputs": [],
      "stateMutability": "nonpayable",
      "type": "function"
    },
    {
      "inputs": [
        {
          "internalType": "address",
          "name": "operator",
          "type": "address"
        },
        {
          "internalType": "bool",
          "name": "approved",
          "type": "bool"
        }
      ],
      "name": "setApprovalForAll",
      "outputs": [],
      "stateMutability": "nonpayable",
      "type": "function"
    },
    {
      "inputs": [
        {
          "internalType": "string",
          "name": "_newBaseExtension",
          "type": "string"
        }
      ],
      "name": "setBaseExtension",
      "outputs": [],
      "stateMutability": "nonpayable",
      "type": "function"
    },
    {
      "inputs": [
        {
          "internalType": "string",
          "name": "_newBaseURI",
          "type": "string"
        }
      ],
      "name": "setBaseURI",
      "outputs": [],
      "stateMutability": "nonpayable",
      "type": "function"
    },
    {
      "inputs": [
        {
          "internalType": "uint256",
          "name": "_newMaxPerMint",
          "type": "uint256"
        }
      ],
      "name": "setMaxPerMint",
      "outputs": [],
      "stateMutability": "nonpayable",
      "type": "function"
    },
    {
      "inputs": [
        {
          "internalType": "string",
          "name": "_notRevealedURI",
          "type": "string"
        }
      ],
      "name": "setNotRevealedURI",
      "outputs": [],
      "stateMutability": "nonpayable",
      "type": "function"
    },
    {
      "inputs": [
        {
          "internalType": "uint256",
          "name": "_newPrice",
          "type": "uint256"
        }
      ],
      "name": "setPrice",
      "outputs": [],
      "stateMutability": "nonpayable",
      "type": "function"
    },
    {
      "inputs": [
        {
          "internalType": "bytes4",
          "name": "interfaceId",
          "type": "bytes4"
        }
      ],
      "name": "supportsInterface",
      "outputs": [
        {
          "internalType": "bool",
          "name": "",
          "type": "bool"
        }
      ],
      "stateMutability": "view",
      "type": "function"
    },
    {
      "inputs": [],
      "name": "symbol",
      "outputs": [
        {
          "internalType": "string",
          "name": "",
          "type": "string"
        }
      ],
      "stateMutability": "view",
      "type": "function"
    },
    {
      "inputs": [
        {
          "internalType": "uint256",
          "name": "index",
          "type": "uint256"
        }
      ],
      "name": "tokenByIndex",
      "outputs": [
        {
          "internalType": "uint256",
          "name": "",
          "type": "uint256"
        }
      ],
      "stateMutability": "view",
      "type": "function"
    },
    {
      "inputs": [
        {
          "internalType": "address",
          "name": "owner",
          "type": "address"
        },
        {
          "internalType": "uint256",
          "name": "index",
          "type": "uint256"
        }
      ],
      "name": "tokenOfOwnerByIndex",
      "outputs": [
        {
          "internalType": "uint256",
          "name": "",
          "type": "uint256"
        }
      ],
      "stateMutability": "view",
      "type": "function"
    },
    {
      "inputs": [
        {
          "internalType": "uint256",
          "name": "_tokenId",
          "type": "uint256"
        }
      ],
      "name": "tokenURI",
      "outputs": [
        {
          "internalType": "string",
          "name": "",
          "type": "string"
        }
      ],
      "stateMutability": "view",
      "type": "function"
    },
    {
      "inputs": [],
      "name": "totalSupply",
      "outputs": [
        {
          "internalType": "uint256",
          "name": "",
          "type": "uint256"
        }
      ],
      "stateMutability": "view",
      "type": "function"
    },
    {
      "inputs": [
        {
          "internalType": "address",
          "name": "from",
          "type": "address"
        },
        {
          "internalType": "address",
          "name": "to",
          "type": "address"
        },
        {
          "internalType": "uint256",
          "name": "tokenId",
          "type": "uint256"
        }
      ],
      "name": "transferFrom",
      "outputs": [],
      "stateMutability": "nonpayable",
      "type": "function"
    },
    {
      "inputs": [
        {
          "internalType": "address",
          "name": "newOwner",
          "type": "address"
        }
      ],
      "name": "transferOwnership",
      "outputs": [],
      "stateMutability": "nonpayable",
      "type": "function"
    },
    {
      "inputs": [],
      "name": "withdraw",
      "outputs": [],
      "stateMutability": "nonpayable",
      "type": "function"
    }
  ],
  "bytecode": "0x60c06040526005608081905264173539b7b760d91b60a09081526200002891600e91906200022d565b5066b9739f99468000600f5560146010556011805461ffff191690553480156200005157600080fd5b5060405162002949380380620029498339810160408190526200007491620003a0565b604080518082018252600a81526946756e6b7950697a7a6160b01b60208083019182528351808501909452600584526450495a5a4160d81b908401528151919291620000c3916000916200022d565b508051620000d99060019060208401906200022d565b505050620000f6620000f06200011460201b60201c565b62000118565b62000101826200016a565b6200010c81620001d2565b505062000447565b3390565b600a80546001600160a01b038381166001600160a01b0319831681179093556040519116919082907f8be0079c531659141344cd1fd0a4f28419497f9722a3daafe3b4186f6b6457e090600090a35050565b600a546001600160a01b03163314620001b95760405162461bcd60e51b815260206004820181905260248201526000805160206200292983398151915260448201526064015b60405180910390fd5b8051620001ce90600c9060208401906200022d565b5050565b600a546001600160a01b031633146200021d5760405162461bcd60e51b81526020600482018190526024820152600080516020620029298339815191526044820152606401620001b0565b8051620001ce90600d9060208401905b8280546200023b906200040a565b90600052602060002090601f0160209004810192826200025f5760008555620002aa565b82601f106200027a57805160ff1916838001178555620002aa565b82800160010185558215620002aa579182015b82811115620002aa5782518255916020019190600101906200028d565b50620002b8929150620002bc565b5090565b5b80821115620002b85760008155600101620002bd565b634e487b7160e01b600052604160045260246000fd5b600082601f830112620002fb57600080fd5b81516001600160401b0380821115620003185762000318620002d3565b604051601f8301601f19908116603f01168101908282118183101715620003435762000343620002d3565b816040528381526020925086838588010111156200036057600080fd5b600091505b8382101562000384578582018301518183018401529082019062000365565b83821115620003965760008385830101525b9695505050505050565b60008060408385031215620003b457600080fd5b82516001600160401b0380821115620003cc57600080fd5b620003da86838701620002e9565b93506020850151915080821115620003f157600080fd5b506200040085828601620002e9565b9150509250929050565b600181811c908216806200041f57607f821691505b602082108114156200044157634e487b7160e01b600052602260045260246000fd5b50919050565b6124d280620004576000396000f3fe60806040526004361061020f5760003560e01c8063715018a611610118578063a22cb465116100a0578063da3ef23f1161006f578063da3ef23f146105ae578063db6242c3146105ce578063e985e9c5146105ee578063f2c4ce1e14610637578063f2fde38b1461065757600080fd5b8063a22cb46514610539578063b88d4fde14610559578063c668286214610579578063c87b56dd1461058e57600080fd5b806391b7f5ed116100e757806391b7f5ed146104bb578063940cd05b146104db57806395d89b41146104fb578063a035b1fe14610510578063a0712d681461052657600080fd5b8063715018a61461045d57806372250380146104725780638a333b50146104875780638da5cb5b1461049d57600080fd5b806342842e0e1161019b57806355f804b31161016a57806355f804b3146103ce5780635c975abb146103ee5780636352211e146104085780636c0360eb1461042857806370a082311461043d57600080fd5b806342842e0e146103595780634f6ccce714610379578063507e094f1461039957806351830227146103af57600080fd5b8063095ea7b3116101e2578063095ea7b3146102c557806318160ddd146102e557806323b872dd146103045780632f745c59146103245780633ccfd60b1461034457600080fd5b806301ffc9a71461021457806302329a291461024957806306fdde031461026b578063081812fc1461028d575b600080fd5b34801561022057600080fd5b5061023461022f366004611e5b565b610677565b60405190151581526020015b60405180910390f35b34801561025557600080fd5b50610269610264366004611e94565b6106a2565b005b34801561027757600080fd5b506102806106e8565b6040516102409190611f07565b34801561029957600080fd5b506102ad6102a8366004611f1a565b61077a565b6040516001600160a01b039091168152602001610240565b3480156102d157600080fd5b506102696102e0366004611f4a565b61080f565b3480156102f157600080fd5b506008545b604051908152602001610240565b34801561031057600080fd5b5061026961031f366004611f74565b610925565b34801561033057600080fd5b506102f661033f366004611f4a565b610956565b34801561035057600080fd5b506102696109ec565b34801561036557600080fd5b50610269610374366004611f74565b610ad7565b34801561038557600080fd5b506102f6610394366004611f1a565b610af2565b3480156103a557600080fd5b506102f660105481565b3480156103bb57600080fd5b5060115461023490610100900460ff1681565b3480156103da57600080fd5b506102696103e936600461203c565b610b85565b3480156103fa57600080fd5b506011546102349060ff1681565b34801561041457600080fd5b506102ad610423366004611f1a565b610bc6565b34801561043457600080fd5b50610280610c3d565b34801561044957600080fd5b506102f6610458366004612085565b610ccb565b34801561046957600080fd5b50610269610d52565b34801561047e57600080fd5b50610280610d88565b34801561049357600080fd5b506102f661089d81565b3480156104a957600080fd5b50600a546001600160a01b03166102ad565b3480156104c757600080fd5b506102696104d6366004611f1a565b610d95565b3480156104e757600080fd5b506102696104f6366004611e94565b610dc4565b34801561050757600080fd5b50610280610e08565b34801561051c57600080fd5b506102f6600f5481565b610269610534366004611f1a565b610e17565b34801561054557600080fd5b506102696105543660046120a0565b61103c565b34801561056557600080fd5b506102696105743660046120d3565b611047565b34801561058557600080fd5b5061028061107f565b34801561059a57600080fd5b506102806105a9366004611f1a565b61108c565b3480156105ba57600080fd5b506102696105c936600461203c565b6111c9565b3480156105da57600080fd5b506102696105e9366004611f1a565b611206565b3480156105fa57600080fd5b5061023461060936600461214f565b6001600160a01b03918216600090815260056020908152604080832093909416825291909152205460ff1690565b34801561064357600080fd5b5061026961065236600461203c565b611235565b34801561066357600080fd5b50610269610672366004612085565b611272565b60006001600160e01b0319821663780e9d6360e01b148061069c575061069c8261130a565b92915050565b600a546001600160a01b031633146106d55760405162461bcd60e51b81526004016106cc90612179565b60405180910390fd5b6011805460ff1916911515919091179055565b6060600080546106f7906121ae565b80601f0160208091040260200160405190810160405280929190818152602001828054610723906121ae565b80156107705780601f1061074557610100808354040283529160200191610770565b820191906000526020600020905b81548152906001019060200180831161075357829003601f168201915b5050505050905090565b6000818152600260205260408120546001600160a01b03166107f35760405162461bcd60e51b815260206004820152602c60248201527f4552433732313a20617070726f76656420717565727920666f72206e6f6e657860448201526b34b9ba32b73a103a37b5b2b760a11b60648201526084016106cc565b506000908152600460205260409020546001600160a01b031690565b600061081a82610bc6565b9050806001600160a01b0316836001600160a01b031614156108885760405162461bcd60e51b815260206004820152602160248201527f4552433732313a20617070726f76616c20746f2063757272656e74206f776e656044820152603960f91b60648201526084016106cc565b336001600160a01b03821614806108a457506108a48133610609565b6109165760405162461bcd60e51b815260206004820152603860248201527f4552433732313a20617070726f76652063616c6c6572206973206e6f74206f7760448201527f6e6572206e6f7220617070726f76656420666f7220616c6c000000000000000060648201526084016106cc565b610920838361135a565b505050565b61092f33826113c8565b61094b5760405162461bcd60e51b81526004016106cc906121e9565b6109208383836114bf565b600061096183610ccb565b82106109c35760405162461bcd60e51b815260206004820152602b60248201527f455243373231456e756d657261626c653a206f776e657220696e646578206f7560448201526a74206f6620626f756e647360a81b60648201526084016106cc565b506001600160a01b03919091166000908152600660209081526040808320938352929052205490565b600a546001600160a01b03163314610a165760405162461bcd60e51b81526004016106cc90612179565b6000610a2a600a546001600160a01b031690565b6001600160a01b03164760405160006040518083038185875af1925050503d8060008114610a74576040519150601f19603f3d011682016040523d82523d6000602084013e610a79565b606091505b5050905080610ad45760405162461bcd60e51b815260206004820152602160248201527f4661696c656420746f2073656e6420657468657220746f20746865206f776e656044820152603960f91b60648201526084016106cc565b50565b61092083838360405180602001604052806000815250611047565b6000610afd60085490565b8210610b605760405162461bcd60e51b815260206004820152602c60248201527f455243373231456e756d657261626c653a20676c6f62616c20696e646578206f60448201526b7574206f6620626f756e647360a01b60648201526084016106cc565b60088281548110610b7357610b7361223a565b90600052602060002001549050919050565b600a546001600160a01b03163314610baf5760405162461bcd60e51b81526004016106cc90612179565b8051610bc290600c906020840190611dac565b5050565b6000818152600260205260408120546001600160a01b03168061069c5760405162461bcd60e51b815260206004820152602960248201527f4552433732313a206f776e657220717565727920666f72206e6f6e657869737460448201526832b73a103a37b5b2b760b91b60648201526084016106cc565b600c8054610c4a906121ae565b80601f0160208091040260200160405190810160405280929190818152602001828054610c76906121ae565b8015610cc35780601f10610c9857610100808354040283529160200191610cc3565b820191906000526020600020905b815481529060010190602001808311610ca657829003601f168201915b505050505081565b60006001600160a01b038216610d365760405162461bcd60e51b815260206004820152602a60248201527f4552433732313a2062616c616e636520717565727920666f7220746865207a65604482015269726f206164647265737360b01b60648201526084016106cc565b506001600160a01b031660009081526003602052604090205490565b600a546001600160a01b03163314610d7c5760405162461bcd60e51b81526004016106cc90612179565b610d86600061166a565b565b600d8054610c4a906121ae565b600a546001600160a01b03163314610dbf5760405162461bcd60e51b81526004016106cc90612179565b600f55565b600a546001600160a01b03163314610dee5760405162461bcd60e51b81526004016106cc90612179565b601180549115156101000261ff0019909216919091179055565b6060600180546106f7906121ae565b60115460ff1615610e5b5760405162461bcd60e51b815260206004820152600e60248201526d135a5b9d081a5cc81c185d5cd95960921b60448201526064016106cc565b60008111610eb55760405162461bcd60e51b815260206004820152602160248201527f4d757374206d696e74206174206c65617374206f6e652046756e6b7950697a7a6044820152606160f81b60648201526084016106cc565b601054811115610f2d5760405162461bcd60e51b815260206004820152603960248201527f4d696e7420616d6f756e74206d757374206265206c657373207468616e206f7260448201527f20657175616c20746f206d6178206d696e7420616d6f756e740000000000000060648201526084016106cc565b80600f54610f3b9190612266565b341015610f9a5760405162461bcd60e51b815260206004820152602760248201527f4e6f7420656e6f7567682045544820737570706c69656420666f72207472616e60448201526639b0b1ba34b7b760c91b60648201526084016106cc565b61089d81610fa7600b5490565b610fb19190612285565b1115610fff5760405162461bcd60e51b815260206004820152601d60248201527f4e6f7420656e6f75676820737570706c7920666f72206d696e74696e6700000060448201526064016106cc565b60005b81811015610bc257611018600b80546001019055565b61102a33611025600b5490565b6116bc565b806110348161229d565b915050611002565b610bc23383836116d6565b61105133836113c8565b61106d5760405162461bcd60e51b81526004016106cc906121e9565b611079848484846117a5565b50505050565b600e8054610c4a906121ae565b6000818152600260205260409020546060906001600160a01b03166110f35760405162461bcd60e51b815260206004820152601f60248201527f55524920717565727920666f72206e6f6e6578697374656e7420746f6b656e0060448201526064016106cc565b601154610100900460ff1661119457600d805461110f906121ae565b80601f016020809104026020016040519081016040528092919081815260200182805461113b906121ae565b80156111885780601f1061115d57610100808354040283529160200191611188565b820191906000526020600020905b81548152906001019060200180831161116b57829003601f168201915b50505050509050919050565b600c61119f836117d8565b600e6040516020016111b393929190612352565b6040516020818303038152906040529050919050565b600a546001600160a01b031633146111f35760405162461bcd60e51b81526004016106cc90612179565b8051610bc290600e906020840190611dac565b600a546001600160a01b031633146112305760405162461bcd60e51b81526004016106cc90612179565b601055565b600a546001600160a01b0316331461125f5760405162461bcd60e51b81526004016106cc90612179565b8051610bc290600d906020840190611dac565b600a546001600160a01b0316331461129c5760405162461bcd60e51b81526004016106cc90612179565b6001600160a01b0381166113015760405162461bcd60e51b815260206004820152602660248201527f4f776e61626c653a206e6577206f776e657220697320746865207a65726f206160448201526564647265737360d01b60648201526084016106cc565b610ad48161166a565b60006001600160e01b031982166380ac58cd60e01b148061133b57506001600160e01b03198216635b5e139f60e01b145b8061069c57506301ffc9a760e01b6001600160e01b031983161461069c565b600081815260046020526040902080546001600160a01b0319166001600160a01b038416908117909155819061138f82610bc6565b6001600160a01b03167f8c5be1e5ebec7d5bd14f71427d1e84f3dd0314c0f7b2291e5b200ac8c7c3b92560405160405180910390a45050565b6000818152600260205260408120546001600160a01b03166114415760405162461bcd60e51b815260206004820152602c60248201527f4552433732313a206f70657261746f7220717565727920666f72206e6f6e657860448201526b34b9ba32b73a103a37b5b2b760a11b60648201526084016106cc565b600061144c83610bc6565b9050806001600160a01b0316846001600160a01b031614806114875750836001600160a01b031661147c8461077a565b6001600160a01b0316145b806114b757506001600160a01b0380821660009081526005602090815260408083209388168352929052205460ff165b949350505050565b826001600160a01b03166114d282610bc6565b6001600160a01b03161461153a5760405162461bcd60e51b815260206004820152602960248201527f4552433732313a207472616e73666572206f6620746f6b656e2074686174206960448201526839903737ba1037bbb760b91b60648201526084016106cc565b6001600160a01b03821661159c5760405162461bcd60e51b8152602060048201526024808201527f4552433732313a207472616e7366657220746f20746865207a65726f206164646044820152637265737360e01b60648201526084016106cc565b6115a78383836118d6565b6115b260008261135a565b6001600160a01b03831660009081526003602052604081208054600192906115db908490612385565b90915550506001600160a01b0382166000908152600360205260408120805460019290611609908490612285565b909155505060008181526002602052604080822080546001600160a01b0319166001600160a01b0386811691821790925591518493918716917fddf252ad1be2c89b69c2b068fc378daa952ba7f163c4a11628f55a4df523b3ef91a4505050565b600a80546001600160a01b038381166001600160a01b0319831681179093556040519116919082907f8be0079c531659141344cd1fd0a4f28419497f9722a3daafe3b4186f6b6457e090600090a35050565b610bc282826040518060200160405280600081525061198e565b816001600160a01b0316836001600160a01b031614156117385760405162461bcd60e51b815260206004820152601960248201527f4552433732313a20617070726f766520746f2063616c6c65720000000000000060448201526064016106cc565b6001600160a01b03838116600081815260056020908152604080832094871680845294825291829020805460ff191686151590811790915591519182527f17307eab39ab6107e8899845ad3d59bd9653f200f220920489ca2b5937696c31910160405180910390a3505050565b6117b08484846114bf565b6117bc848484846119c1565b6110795760405162461bcd60e51b81526004016106cc9061239c565b6060816117fc5750506040805180820190915260018152600360fc1b602082015290565b8160005b811561182657806118108161229d565b915061181f9050600a83612404565b9150611800565b60008167ffffffffffffffff81111561184157611841611fb0565b6040519080825280601f01601f19166020018201604052801561186b576020820181803683370190505b5090505b84156114b757611880600183612385565b915061188d600a86612418565b611898906030612285565b60f81b8183815181106118ad576118ad61223a565b60200101906001600160f81b031916908160001a9053506118cf600a86612404565b945061186f565b6001600160a01b0383166119315761192c81600880546000838152600960205260408120829055600182018355919091527ff3f7a9fe364faab93b216da50a3214154f22a0a2b415b23a84c8169e8b636ee30155565b611954565b816001600160a01b0316836001600160a01b031614611954576119548382611ace565b6001600160a01b03821661196b5761092081611b6b565b826001600160a01b0316826001600160a01b031614610920576109208282611c1a565b6119988383611c5e565b6119a560008484846119c1565b6109205760405162461bcd60e51b81526004016106cc9061239c565b60006001600160a01b0384163b15611ac357604051630a85bd0160e11b81526001600160a01b0385169063150b7a0290611a0590339089908890889060040161242c565b602060405180830381600087803b158015611a1f57600080fd5b505af1925050508015611a4f575060408051601f3d908101601f19168201909252611a4c91810190612469565b60015b611aa9573d808015611a7d576040519150601f19603f3d011682016040523d82523d6000602084013e611a82565b606091505b508051611aa15760405162461bcd60e51b81526004016106cc9061239c565b805181602001fd5b6001600160e01b031916630a85bd0160e11b1490506114b7565b506001949350505050565b60006001611adb84610ccb565b611ae59190612385565b600083815260076020526040902054909150808214611b38576001600160a01b03841660009081526006602090815260408083208584528252808320548484528184208190558352600790915290208190555b5060009182526007602090815260408084208490556001600160a01b039094168352600681528383209183525290812055565b600854600090611b7d90600190612385565b60008381526009602052604081205460088054939450909284908110611ba557611ba561223a565b906000526020600020015490508060088381548110611bc657611bc661223a565b6000918252602080832090910192909255828152600990915260408082208490558582528120556008805480611bfe57611bfe612486565b6001900381819060005260206000200160009055905550505050565b6000611c2583610ccb565b6001600160a01b039093166000908152600660209081526040808320868452825280832085905593825260079052919091209190915550565b6001600160a01b038216611cb45760405162461bcd60e51b815260206004820181905260248201527f4552433732313a206d696e7420746f20746865207a65726f206164647265737360448201526064016106cc565b6000818152600260205260409020546001600160a01b031615611d195760405162461bcd60e51b815260206004820152601c60248201527f4552433732313a20746f6b656e20616c7265616479206d696e7465640000000060448201526064016106cc565b611d25600083836118d6565b6001600160a01b0382166000908152600360205260408120805460019290611d4e908490612285565b909155505060008181526002602052604080822080546001600160a01b0319166001600160a01b03861690811790915590518392907fddf252ad1be2c89b69c2b068fc378daa952ba7f163c4a11628f55a4df523b3ef908290a45050565b828054611db8906121ae565b90600052602060002090601f016020900481019282611dda5760008555611e20565b82601f10611df357805160ff1916838001178555611e20565b82800160010185558215611e20579182015b82811115611e20578251825591602001919060010190611e05565b50611e2c929150611e30565b5090565b5b80821115611e2c5760008155600101611e31565b6001600160e01b031981168114610ad457600080fd5b600060208284031215611e6d57600080fd5b8135611e7881611e45565b9392505050565b80358015158114611e8f57600080fd5b919050565b600060208284031215611ea657600080fd5b611e7882611e7f565b60005b83811015611eca578181015183820152602001611eb2565b838111156110795750506000910152565b60008151808452611ef3816020860160208601611eaf565b601f01601f19169290920160200192915050565b602081526000611e786020830184611edb565b600060208284031215611f2c57600080fd5b5035919050565b80356001600160a01b0381168114611e8f57600080fd5b60008060408385031215611f5d57600080fd5b611f6683611f33565b946020939093013593505050565b600080600060608486031215611f8957600080fd5b611f9284611f33565b9250611fa060208501611f33565b9150604084013590509250925092565b634e487b7160e01b600052604160045260246000fd5b600067ffffffffffffffff80841115611fe157611fe1611fb0565b604051601f8501601f19908116603f0116810190828211818310171561200957612009611fb0565b8160405280935085815286868601111561202257600080fd5b858560208301376000602087830101525050509392505050565b60006020828403121561204e57600080fd5b813567ffffffffffffffff81111561206557600080fd5b8201601f8101841361207657600080fd5b6114b784823560208401611fc6565b60006020828403121561209757600080fd5b611e7882611f33565b600080604083850312156120b357600080fd5b6120bc83611f33565b91506120ca60208401611e7f565b90509250929050565b600080600080608085870312156120e957600080fd5b6120f285611f33565b935061210060208601611f33565b925060408501359150606085013567ffffffffffffffff81111561212357600080fd5b8501601f8101871361213457600080fd5b61214387823560208401611fc6565b91505092959194509250565b6000806040838503121561216257600080fd5b61216b83611f33565b91506120ca60208401611f33565b6020808252818101527f4f776e61626c653a2063616c6c6572206973206e6f7420746865206f776e6572604082015260600190565b600181811c908216806121c257607f821691505b602082108114156121e357634e487b7160e01b600052602260045260246000fd5b50919050565b60208082526031908201527f4552433732313a207472616e736665722063616c6c6572206973206e6f74206f6040820152701ddb995c881b9bdc88185c1c1c9bdd9959607a1b606082015260800190565b634e487b7160e01b600052603260045260246000fd5b634e487b7160e01b600052601160045260246000fd5b600081600019048311821515161561228057612280612250565b500290565b6000821982111561229857612298612250565b500190565b60006000198214156122b1576122b1612250565b5060010190565b8054600090600181811c90808316806122d257607f831692505b60208084108214156122f457634e487b7160e01b600052602260045260246000fd5b818015612308576001811461231957612346565b60ff19861689528489019650612346565b60008881526020902060005b8681101561233e5781548b820152908501908301612325565b505084890196505b50505050505092915050565b600061235e82866122b8565b845161236e818360208901611eaf565b61237a818301866122b8565b979650505050505050565b60008282101561239757612397612250565b500390565b60208082526032908201527f4552433732313a207472616e7366657220746f206e6f6e20455243373231526560408201527131b2b4bb32b91034b6b83632b6b2b73a32b960711b606082015260800190565b634e487b7160e01b600052601260045260246000fd5b600082612413576124136123ee565b500490565b600082612427576124276123ee565b500690565b6001600160a01b038581168252841660208201526040810183905260806060820181905260009061245f90830184611edb565b9695505050505050565b60006020828403121561247b57600080fd5b8151611e7881611e45565b634e487b7160e01b600052603160045260246000fdfea26469706673582212208ea2889413d4006510d3a29fbd728126d9ed69798942080629cd06198bf755af64736f6c634300080900334f776e61626c653a2063616c6c6572206973206e6f7420746865206f776e6572",
  "linkReferences": {},
  "deployedLinkReferences": {}
}