{
  "_format": "hh-sol-artifact-1",
  "contractName": "FunkyPizza",
  "sourceName": "contracts/FunkyPizza.sol",
  "abi": [
    {
      "inputs": [
        {
          "internalType": "string",
          "name": "_initBaseURI",
          "type": "string"
        }
      ],
      "stateMutability": "nonpayable",
      "type": "constructor"
    },
    {
      "anonymous": false,
      "inputs": [
        {
          "indexed": true,
          "internalType": "address",
          "name": "owner",
          "type": "address"
        },
        {
          "indexed": true,
          "internalType": "address",
          "name": "approved",
          "type": "address"
        },
        {
          "indexed": true,
          "internalType": "uint256",
          "name": "tokenId",
          "type": "uint256"
        }
      ],
      "name": "Approval",
      "type": "event"
    },
    {
      "anonymous": false,
      "inputs": [
        {
          "indexed": true,
          "internalType": "address",
          "name": "owner",
          "type": "address"
        },
        {
          "indexed": true,
          "internalType": "address",
          "name": "operator",
          "type": "address"
        },
        {
          "indexed": false,
          "internalType": "bool",
          "name": "approved",
          "type": "bool"
        }
      ],
      "name": "ApprovalForAll",
      "type": "event"
    },
    {
      "anonymous": false,
      "inputs": [
        {
          "indexed": true,
          "internalType": "address",
          "name": "previousOwner",
          "type": "address"
        },
        {
          "indexed": true,
          "internalType": "address",
          "name": "newOwner",
          "type": "address"
        }
      ],
      "name": "OwnershipTransferred",
      "type": "event"
    },
    {
      "anonymous": false,
      "inputs": [
        {
          "indexed": true,
          "internalType": "address",
          "name": "from",
          "type": "address"
        },
        {
          "indexed": true,
          "internalType": "address",
          "name": "to",
          "type": "address"
        },
        {
          "indexed": true,
          "internalType": "uint256",
          "name": "tokenId",
          "type": "uint256"
        }
      ],
      "name": "Transfer",
      "type": "event"
    },
    {
      "inputs": [
        {
          "internalType": "address",
          "name": "to",
          "type": "address"
        },
        {
          "internalType": "uint256",
          "name": "tokenId",
          "type": "uint256"
        }
      ],
      "name": "approve",
      "outputs": [],
      "stateMutability": "nonpayable",
      "type": "function"
    },
    {
      "inputs": [
        {
          "internalType": "address",
          "name": "owner",
          "type": "address"
        }
      ],
      "name": "balanceOf",
      "outputs": [
        {
          "internalType": "uint256",
          "name": "",
          "type": "uint256"
        }
      ],
      "stateMutability": "view",
      "type": "function"
    },
    {
      "inputs": [],
      "name": "baseURI",
      "outputs": [
        {
          "internalType": "string",
          "name": "",
          "type": "string"
        }
      ],
      "stateMutability": "view",
      "type": "function"
    },
    {
      "inputs": [
        {
          "internalType": "uint256",
          "name": "tokenId",
          "type": "uint256"
        }
      ],
      "name": "getApproved",
      "outputs": [
        {
          "internalType": "address",
          "name": "",
          "type": "address"
        }
      ],
      "stateMutability": "view",
      "type": "function"
    },
    {
      "inputs": [
        {
          "internalType": "address",
          "name": "owner",
          "type": "address"
        },
        {
          "internalType": "address",
          "name": "operator",
          "type": "address"
        }
      ],
      "name": "isApprovedForAll",
      "outputs": [
        {
          "internalType": "bool",
          "name": "",
          "type": "bool"
        }
      ],
      "stateMutability": "view",
      "type": "function"
    },
    {
      "inputs": [],
      "name": "max_per_mint",
      "outputs": [
        {
          "internalType": "uint256",
          "name": "",
          "type": "uint256"
        }
      ],
      "stateMutability": "view",
      "type": "function"
    },
    {
      "inputs": [],
      "name": "max_supply",
      "outputs": [
        {
          "internalType": "uint256",
          "name": "",
          "type": "uint256"
        }
      ],
      "stateMutability": "view",
      "type": "function"
    },
    {
      "inputs": [
        {
          "internalType": "uint256",
          "name": "_mintAmount",
          "type": "uint256"
        }
      ],
      "name": "mint",
      "outputs": [],
      "stateMutability": "payable",
      "type": "function"
    },
    {
      "inputs": [],
      "name": "name",
      "outputs": [
        {
          "internalType": "string",
          "name": "",
          "type": "string"
        }
      ],
      "stateMutability": "view",
      "type": "function"
    },
    {
      "inputs": [],
      "name": "owner",
      "outputs": [
        {
          "internalType": "address",
          "name": "",
          "type": "address"
        }
      ],
      "stateMutability": "view",
      "type": "function"
    },
    {
      "inputs": [
        {
          "internalType": "uint256",
          "name": "tokenId",
          "type": "uint256"
        }
      ],
      "name": "ownerOf",
      "outputs": [
        {
          "internalType": "address",
          "name": "",
          "type": "address"
        }
      ],
      "stateMutability": "view",
      "type": "function"
    },
    {
      "inputs": [],
      "name": "price",
      "outputs": [
        {
          "internalType": "uint256",
          "name": "",
          "type": "uint256"
        }
      ],
      "stateMutability": "view",
      "type": "function"
    },
    {
      "inputs": [],
      "name": "renounceOwnership",
      "outputs": [],
      "stateMutability": "nonpayable",
      "type": "function"
    },
    {
      "inputs": [
        {
          "internalType": "address",
          "name": "from",
          "type": "address"
        },
        {
          "internalType": "address",
          "name": "to",
          "type": "address"
        },
        {
          "internalType": "uint256",
          "name": "tokenId",
          "type": "uint256"
        }
      ],
      "name": "safeTransferFrom",
      "outputs": [],
      "stateMutability": "nonpayable",
      "type": "function"
    },
    {
      "inputs": [
        {
          "internalType": "address",
          "name": "from",
          "type": "address"
        },
        {
          "internalType": "address",
          "name": "to",
          "type": "address"
        },
        {
          "internalType": "uint256",
          "name": "tokenId",
          "type": "uint256"
        },
        {
          "internalType": "bytes",
          "name": "_data",
          "type": "bytes"
        }
      ],
      "name": "safeTransferFrom",
      "outputs": [],
      "stateMutability": "nonpayable",
      "type": "function"
    },
    {
      "inputs": [
        {
          "internalType": "address",
          "name": "operator",
          "type": "address"
        },
        {
          "internalType": "bool",
          "name": "approved",
          "type": "bool"
        }
      ],
      "name": "setApprovalForAll",
      "outputs": [],
      "stateMutability": "nonpayable",
      "type": "function"
    },
    {
      "inputs": [
        {
          "internalType": "string",
          "name": "_newBaseURI",
          "type": "string"
        }
      ],
      "name": "setBaseURI",
      "outputs": [],
      "stateMutability": "nonpayable",
      "type": "function"
    },
    {
      "inputs": [
        {
          "internalType": "bytes4",
          "name": "interfaceId",
          "type": "bytes4"
        }
      ],
      "name": "supportsInterface",
      "outputs": [
        {
          "internalType": "bool",
          "name": "",
          "type": "bool"
        }
      ],
      "stateMutability": "view",
      "type": "function"
    },
    {
      "inputs": [],
      "name": "symbol",
      "outputs": [
        {
          "internalType": "string",
          "name": "",
          "type": "string"
        }
      ],
      "stateMutability": "view",
      "type": "function"
    },
    {
      "inputs": [
        {
          "internalType": "uint256",
          "name": "_tokenId",
          "type": "uint256"
        }
      ],
      "name": "tokenURI",
      "outputs": [
        {
          "internalType": "string",
          "name": "",
          "type": "string"
        }
      ],
      "stateMutability": "view",
      "type": "function"
    },
    {
      "inputs": [
        {
          "internalType": "address",
          "name": "from",
          "type": "address"
        },
        {
          "internalType": "address",
          "name": "to",
          "type": "address"
        },
        {
          "internalType": "uint256",
          "name": "tokenId",
          "type": "uint256"
        }
      ],
      "name": "transferFrom",
      "outputs": [],
      "stateMutability": "nonpayable",
      "type": "function"
    },
    {
      "inputs": [
        {
          "internalType": "address",
          "name": "newOwner",
          "type": "address"
        }
      ],
      "name": "transferOwnership",
      "outputs": [],
      "stateMutability": "nonpayable",
      "type": "function"
    },
    {
      "inputs": [],
      "name": "withdraw",
      "outputs": [],
      "stateMutability": "nonpayable",
      "type": "function"
    }
  ],
  "bytecode": "0x60806040523480156200001157600080fd5b5060405162003844380380620038448339818101604052810190620000379190620003d4565b6040518060400160405280600a81526020017f46756e6b7950697a7a61000000000000000000000000000000000000000000008152506040518060400160405280600581526020017f50495a5a410000000000000000000000000000000000000000000000000000008152508160009080519060200190620000bb929190620002b2565b508060019080519060200190620000d4929190620002b2565b505050620000f7620000eb6200010f60201b60201c565b6200011760201b60201c565b6200010881620001dd60201b60201c565b50620005bf565b600033905090565b6000600760009054906101000a900473ffffffffffffffffffffffffffffffffffffffff16905081600760006101000a81548173ffffffffffffffffffffffffffffffffffffffff021916908373ffffffffffffffffffffffffffffffffffffffff1602179055508173ffffffffffffffffffffffffffffffffffffffff168173ffffffffffffffffffffffffffffffffffffffff167f8be0079c531659141344cd1fd0a4f28419497f9722a3daafe3b4186f6b6457e060405160405180910390a35050565b620001ed6200010f60201b60201c565b73ffffffffffffffffffffffffffffffffffffffff16620002136200028860201b60201c565b73ffffffffffffffffffffffffffffffffffffffff16146200026c576040517f08c379a000000000000000000000000000000000000000000000000000000000815260040162000263906200045b565b60405180910390fd5b806009908051906020019062000284929190620002b2565b5050565b6000600760009054906101000a900473ffffffffffffffffffffffffffffffffffffffff16905090565b828054620002c0906200052b565b90600052602060002090601f016020900481019282620002e4576000855562000330565b82601f10620002ff57805160ff191683800117855562000330565b8280016001018555821562000330579182015b828111156200032f57825182559160200191906001019062000312565b5b5090506200033f919062000343565b5090565b5b808211156200035e57600081600090555060010162000344565b5090565b6000620003796200037384620004b1565b6200047d565b9050828152602081018484840111156200039257600080fd5b6200039f848285620004f5565b509392505050565b600082601f830112620003b957600080fd5b8151620003cb84826020860162000362565b91505092915050565b600060208284031215620003e757600080fd5b600082015167ffffffffffffffff8111156200040257600080fd5b6200041084828501620003a7565b91505092915050565b600062000428602083620004e4565b91507f4f776e61626c653a2063616c6c6572206973206e6f7420746865206f776e65726000830152602082019050919050565b60006020820190508181036000830152620004768162000419565b9050919050565b6000604051905081810181811067ffffffffffffffff82111715620004a757620004a662000590565b5b8060405250919050565b600067ffffffffffffffff821115620004cf57620004ce62000590565b5b601f19601f8301169050602081019050919050565b600082825260208201905092915050565b60005b8381101562000515578082015181840152602081019050620004f8565b8381111562000525576000848401525b50505050565b600060028204905060018216806200054457607f821691505b602082108114156200055b576200055a62000561565b5b50919050565b7f4e487b7100000000000000000000000000000000000000000000000000000000600052602260045260246000fd5b7f4e487b7100000000000000000000000000000000000000000000000000000000600052604160045260246000fd5b61327580620005cf6000396000f3fe6080604052600436106101405760003560e01c806370a08231116100b6578063a0712d681161006f578063a0712d6814610438578063a22cb46514610454578063b88d4fde1461047d578063c87b56dd146104a6578063e985e9c5146104e3578063f2fde38b1461052057610140565b806370a0823114610338578063715018a6146103755780638a333b501461038c5780638da5cb5b146103b757806395d89b41146103e2578063a035b1fe1461040d57610140565b80633ccfd60b116101085780633ccfd60b1461023c57806342842e0e146102535780634c8403a11461027c57806355f804b3146102a75780636352211e146102d05780636c0360eb1461030d57610140565b806301ffc9a71461014557806306fdde0314610182578063081812fc146101ad578063095ea7b3146101ea57806323b872dd14610213575b600080fd5b34801561015157600080fd5b5061016c600480360381019061016791906121a9565b610549565b6040516101799190612b1e565b60405180910390f35b34801561018e57600080fd5b5061019761062b565b6040516101a49190612b39565b60405180910390f35b3480156101b957600080fd5b506101d460048036038101906101cf919061223c565b6106bd565b6040516101e19190612ab7565b60405180910390f35b3480156101f657600080fd5b50610211600480360381019061020c919061216d565b610742565b005b34801561021f57600080fd5b5061023a60048036038101906102359190612067565b61085a565b005b34801561024857600080fd5b506102516108ba565b005b34801561025f57600080fd5b5061027a60048036038101906102759190612067565b610985565b005b34801561028857600080fd5b506102916109a5565b60405161029e9190612d9b565b60405180910390f35b3480156102b357600080fd5b506102ce60048036038101906102c991906121fb565b6109ab565b005b3480156102dc57600080fd5b506102f760048036038101906102f2919061223c565b610a41565b6040516103049190612ab7565b60405180910390f35b34801561031957600080fd5b50610322610af3565b60405161032f9190612b39565b60405180910390f35b34801561034457600080fd5b5061035f600480360381019061035a9190612002565b610b81565b60405161036c9190612d9b565b60405180910390f35b34801561038157600080fd5b5061038a610c39565b005b34801561039857600080fd5b506103a1610cc1565b6040516103ae9190612d9b565b60405180910390f35b3480156103c357600080fd5b506103cc610cc7565b6040516103d99190612ab7565b60405180910390f35b3480156103ee57600080fd5b506103f7610cf1565b6040516104049190612b39565b60405180910390f35b34801561041957600080fd5b50610422610d83565b60405161042f9190612d9b565b60405180910390f35b610452600480360381019061044d919061223c565b610d8d565b005b34801561046057600080fd5b5061047b60048036038101906104769190612131565b610ec7565b005b34801561048957600080fd5b506104a4600480360381019061049f91906120b6565b610edd565b005b3480156104b257600080fd5b506104cd60048036038101906104c8919061223c565b610f3f565b6040516104da9190612b39565b60405180910390f35b3480156104ef57600080fd5b5061050a6004803603810190610505919061202b565b610f73565b6040516105179190612b1e565b60405180910390f35b34801561052c57600080fd5b5061054760048036038101906105429190612002565b611007565b005b60007f80ac58cd000000000000000000000000000000000000000000000000000000007bffffffffffffffffffffffffffffffffffffffffffffffffffffffff1916827bffffffffffffffffffffffffffffffffffffffffffffffffffffffff1916148061061457507f5b5e139f000000000000000000000000000000000000000000000000000000007bffffffffffffffffffffffffffffffffffffffffffffffffffffffff1916827bffffffffffffffffffffffffffffffffffffffffffffffffffffffff1916145b806106245750610623826110ff565b5b9050919050565b60606000805461063a9061306a565b80601f01602080910402602001604051908101604052809291908181526020018280546106669061306a565b80156106b35780601f10610688576101008083540402835291602001916106b3565b820191906000526020600020905b81548152906001019060200180831161069657829003601f168201915b5050505050905090565b60006106c882611169565b610707576040517f08c379a00000000000000000000000000000000000000000000000000000000081526004016106fe90612cbb565b60405180910390fd5b6004600083815260200190815260200160002060009054906101000a900473ffffffffffffffffffffffffffffffffffffffff169050919050565b600061074d82610a41565b90508073ffffffffffffffffffffffffffffffffffffffff168373ffffffffffffffffffffffffffffffffffffffff1614156107be576040517f08c379a00000000000000000000000000000000000000000000000000000000081526004016107b590612d5b565b60405180910390fd5b8073ffffffffffffffffffffffffffffffffffffffff166107dd6111d5565b73ffffffffffffffffffffffffffffffffffffffff16148061080c575061080b816108066111d5565b610f73565b5b61084b576040517f08c379a000000000000000000000000000000000000000000000000000000000815260040161084290612c3b565b60405180910390fd5b61085583836111dd565b505050565b61086b6108656111d5565b82611296565b6108aa576040517f08c379a00000000000000000000000000000000000000000000000000000000081526004016108a190612d7b565b60405180910390fd5b6108b5838383611374565b505050565b6108c26111d5565b73ffffffffffffffffffffffffffffffffffffffff166108e0610cc7565b73ffffffffffffffffffffffffffffffffffffffff1614610936576040517f08c379a000000000000000000000000000000000000000000000000000000000815260040161092d90612d1b565b60405180910390fd5b60004790503373ffffffffffffffffffffffffffffffffffffffff166108fc829081150290604051600060405180830381858888f19350505050158015610981573d6000803e3d6000fd5b5050565b6109a083838360405180602001604052806000815250610edd565b505050565b6103e881565b6109b36111d5565b73ffffffffffffffffffffffffffffffffffffffff166109d1610cc7565b73ffffffffffffffffffffffffffffffffffffffff1614610a27576040517f08c379a0000000000000000000000000000000000000000000000000000000008152600401610a1e90612d1b565b60405180910390fd5b8060099080519060200190610a3d929190611e26565b5050565b6000806002600084815260200190815260200160002060009054906101000a900473ffffffffffffffffffffffffffffffffffffffff169050600073ffffffffffffffffffffffffffffffffffffffff168173ffffffffffffffffffffffffffffffffffffffff161415610aea576040517f08c379a0000000000000000000000000000000000000000000000000000000008152600401610ae190612c7b565b60405180910390fd5b80915050919050565b60098054610b009061306a565b80601f0160208091040260200160405190810160405280929190818152602001828054610b2c9061306a565b8015610b795780601f10610b4e57610100808354040283529160200191610b79565b820191906000526020600020905b815481529060010190602001808311610b5c57829003601f168201915b505050505081565b60008073ffffffffffffffffffffffffffffffffffffffff168273ffffffffffffffffffffffffffffffffffffffff161415610bf2576040517f08c379a0000000000000000000000000000000000000000000000000000000008152600401610be990612c5b565b60405180910390fd5b600360008373ffffffffffffffffffffffffffffffffffffffff1673ffffffffffffffffffffffffffffffffffffffff168152602001908152602001600020549050919050565b610c416111d5565b73ffffffffffffffffffffffffffffffffffffffff16610c5f610cc7565b73ffffffffffffffffffffffffffffffffffffffff1614610cb5576040517f08c379a0000000000000000000000000000000000000000000000000000000008152600401610cac90612d1b565b60405180910390fd5b610cbf60006115d0565b565b6103e881565b6000600760009054906101000a900473ffffffffffffffffffffffffffffffffffffffff16905090565b606060018054610d009061306a565b80601f0160208091040260200160405190810160405280929190818152602001828054610d2c9061306a565b8015610d795780601f10610d4e57610100808354040283529160200191610d79565b820191906000526020600020905b815481529060010190602001808311610d5c57829003601f168201915b5050505050905090565b652f79c275100081565b60008111610dd0576040517f08c379a0000000000000000000000000000000000000000000000000000000008152600401610dc790612b9b565b60405180910390fd5b80652f79c2751000610de29190612f26565b341015610e24576040517f08c379a0000000000000000000000000000000000000000000000000000000008152600401610e1b90612cfb565b60405180910390fd5b6000610e306008611696565b90506103e88282610e419190612e9f565b1115610e82576040517f08c379a0000000000000000000000000000000000000000000000000000000008152600401610e7990612cdb565b60405180910390fd5b6000600190505b828111610ec257610ea5338284610ea09190612e9f565b6116a4565b610eaf60086116c2565b8080610eba9061309c565b915050610e89565b505050565b610ed9610ed26111d5565b83836116d8565b5050565b610eee610ee86111d5565b83611296565b610f2d576040517f08c379a0000000000000000000000000000000000000000000000000000000008152600401610f2490612d7b565b60405180910390fd5b610f3984848484611845565b50505050565b60606009610f4c836118a1565b604051602001610f5d929190612a88565b6040516020818303038152906040529050919050565b6000600560008473ffffffffffffffffffffffffffffffffffffffff1673ffffffffffffffffffffffffffffffffffffffff16815260200190815260200160002060008373ffffffffffffffffffffffffffffffffffffffff1673ffffffffffffffffffffffffffffffffffffffff16815260200190815260200160002060009054906101000a900460ff16905092915050565b61100f6111d5565b73ffffffffffffffffffffffffffffffffffffffff1661102d610cc7565b73ffffffffffffffffffffffffffffffffffffffff1614611083576040517f08c379a000000000000000000000000000000000000000000000000000000000815260040161107a90612d1b565b60405180910390fd5b600073ffffffffffffffffffffffffffffffffffffffff168173ffffffffffffffffffffffffffffffffffffffff1614156110f3576040517f08c379a00000000000000000000000000000000000000000000000000000000081526004016110ea90612b7b565b60405180910390fd5b6110fc816115d0565b50565b60007f01ffc9a7000000000000000000000000000000000000000000000000000000007bffffffffffffffffffffffffffffffffffffffffffffffffffffffff1916827bffffffffffffffffffffffffffffffffffffffffffffffffffffffff1916149050919050565b60008073ffffffffffffffffffffffffffffffffffffffff166002600084815260200190815260200160002060009054906101000a900473ffffffffffffffffffffffffffffffffffffffff1673ffffffffffffffffffffffffffffffffffffffff1614159050919050565b600033905090565b816004600083815260200190815260200160002060006101000a81548173ffffffffffffffffffffffffffffffffffffffff021916908373ffffffffffffffffffffffffffffffffffffffff160217905550808273ffffffffffffffffffffffffffffffffffffffff1661125083610a41565b73ffffffffffffffffffffffffffffffffffffffff167f8c5be1e5ebec7d5bd14f71427d1e84f3dd0314c0f7b2291e5b200ac8c7c3b92560405160405180910390a45050565b60006112a182611169565b6112e0576040517f08c379a00000000000000000000000000000000000000000000000000000000081526004016112d790612c1b565b60405180910390fd5b60006112eb83610a41565b90508073ffffffffffffffffffffffffffffffffffffffff168473ffffffffffffffffffffffffffffffffffffffff16148061135a57508373ffffffffffffffffffffffffffffffffffffffff16611342846106bd565b73ffffffffffffffffffffffffffffffffffffffff16145b8061136b575061136a8185610f73565b5b91505092915050565b8273ffffffffffffffffffffffffffffffffffffffff1661139482610a41565b73ffffffffffffffffffffffffffffffffffffffff16146113ea576040517f08c379a00000000000000000000000000000000000000000000000000000000081526004016113e190612d3b565b60405180910390fd5b600073ffffffffffffffffffffffffffffffffffffffff168273ffffffffffffffffffffffffffffffffffffffff16141561145a576040517f08c379a000000000000000000000000000000000000000000000000000000000815260040161145190612bdb565b60405180910390fd5b611465838383611a4e565b6114706000826111dd565b6001600360008573ffffffffffffffffffffffffffffffffffffffff1673ffffffffffffffffffffffffffffffffffffffff16815260200190815260200160002060008282546114c09190612f80565b925050819055506001600360008473ffffffffffffffffffffffffffffffffffffffff1673ffffffffffffffffffffffffffffffffffffffff16815260200190815260200160002060008282546115179190612e9f565b92505081905550816002600083815260200190815260200160002060006101000a81548173ffffffffffffffffffffffffffffffffffffffff021916908373ffffffffffffffffffffffffffffffffffffffff160217905550808273ffffffffffffffffffffffffffffffffffffffff168473ffffffffffffffffffffffffffffffffffffffff167fddf252ad1be2c89b69c2b068fc378daa952ba7f163c4a11628f55a4df523b3ef60405160405180910390a4505050565b6000600760009054906101000a900473ffffffffffffffffffffffffffffffffffffffff16905081600760006101000a81548173ffffffffffffffffffffffffffffffffffffffff021916908373ffffffffffffffffffffffffffffffffffffffff1602179055508173ffffffffffffffffffffffffffffffffffffffff168173ffffffffffffffffffffffffffffffffffffffff167f8be0079c531659141344cd1fd0a4f28419497f9722a3daafe3b4186f6b6457e060405160405180910390a35050565b600081600001549050919050565b6116be828260405180602001604052806000815250611a53565b5050565b6001816000016000828254019250508190555050565b8173ffffffffffffffffffffffffffffffffffffffff168373ffffffffffffffffffffffffffffffffffffffff161415611747576040517f08c379a000000000000000000000000000000000000000000000000000000000815260040161173e90612bfb565b60405180910390fd5b80600560008573ffffffffffffffffffffffffffffffffffffffff1673ffffffffffffffffffffffffffffffffffffffff16815260200190815260200160002060008473ffffffffffffffffffffffffffffffffffffffff1673ffffffffffffffffffffffffffffffffffffffff16815260200190815260200160002060006101000a81548160ff0219169083151502179055508173ffffffffffffffffffffffffffffffffffffffff168373ffffffffffffffffffffffffffffffffffffffff167f17307eab39ab6107e8899845ad3d59bd9653f200f220920489ca2b5937696c31836040516118389190612b1e565b60405180910390a3505050565b611850848484611374565b61185c84848484611aae565b61189b576040517f08c379a000000000000000000000000000000000000000000000000000000000815260040161189290612b5b565b60405180910390fd5b50505050565b606060008214156118e9576040518060400160405280600181526020017f30000000000000000000000000000000000000000000000000000000000000008152509050611a49565b600082905060005b6000821461191b5780806119049061309c565b915050600a826119149190612ef5565b91506118f1565b60008167ffffffffffffffff81111561195d577f4e487b7100000000000000000000000000000000000000000000000000000000600052604160045260246000fd5b6040519080825280601f01601f19166020018201604052801561198f5781602001600182028036833780820191505090505b5090505b60008514611a42576001826119a89190612f80565b9150600a856119b791906130e5565b60306119c39190612e9f565b60f81b8183815181106119ff577f4e487b7100000000000000000000000000000000000000000000000000000000600052603260045260246000fd5b60200101907effffffffffffffffffffffffffffffffffffffffffffffffffffffffffffff1916908160001a905350600a85611a3b9190612ef5565b9450611993565b8093505050505b919050565b505050565b611a5d8383611c45565b611a6a6000848484611aae565b611aa9576040517f08c379a0000000000000000000000000000000000000000000000000000000008152600401611aa090612b5b565b60405180910390fd5b505050565b6000611acf8473ffffffffffffffffffffffffffffffffffffffff16611e13565b15611c38578373ffffffffffffffffffffffffffffffffffffffff1663150b7a02611af86111d5565b8786866040518563ffffffff1660e01b8152600401611b1a9493929190612ad2565b602060405180830381600087803b158015611b3457600080fd5b505af1925050508015611b6557506040513d601f19601f82011682018060405250810190611b6291906121d2565b60015b611be8573d8060008114611b95576040519150601f19603f3d011682016040523d82523d6000602084013e611b9a565b606091505b50600081511415611be0576040517f08c379a0000000000000000000000000000000000000000000000000000000008152600401611bd790612b5b565b60405180910390fd5b805181602001fd5b63150b7a0260e01b7bffffffffffffffffffffffffffffffffffffffffffffffffffffffff1916817bffffffffffffffffffffffffffffffffffffffffffffffffffffffff191614915050611c3d565b600190505b949350505050565b600073ffffffffffffffffffffffffffffffffffffffff168273ffffffffffffffffffffffffffffffffffffffff161415611cb5576040517f08c379a0000000000000000000000000000000000000000000000000000000008152600401611cac90612c9b565b60405180910390fd5b611cbe81611169565b15611cfe576040517f08c379a0000000000000000000000000000000000000000000000000000000008152600401611cf590612bbb565b60405180910390fd5b611d0a60008383611a4e565b6001600360008473ffffffffffffffffffffffffffffffffffffffff1673ffffffffffffffffffffffffffffffffffffffff1681526020019081526020016000206000828254611d5a9190612e9f565b92505081905550816002600083815260200190815260200160002060006101000a81548173ffffffffffffffffffffffffffffffffffffffff021916908373ffffffffffffffffffffffffffffffffffffffff160217905550808273ffffffffffffffffffffffffffffffffffffffff16600073ffffffffffffffffffffffffffffffffffffffff167fddf252ad1be2c89b69c2b068fc378daa952ba7f163c4a11628f55a4df523b3ef60405160405180910390a45050565b600080823b905060008111915050919050565b828054611e329061306a565b90600052602060002090601f016020900481019282611e545760008555611e9b565b82601f10611e6d57805160ff1916838001178555611e9b565b82800160010185558215611e9b579182015b82811115611e9a578251825591602001919060010190611e7f565b5b509050611ea89190611eac565b5090565b5b80821115611ec5576000816000905550600101611ead565b5090565b6000611edc611ed784612de7565b612db6565b905082815260208101848484011115611ef457600080fd5b611eff848285613028565b509392505050565b6000611f1a611f1584612e17565b612db6565b905082815260208101848484011115611f3257600080fd5b611f3d848285613028565b509392505050565b600081359050611f54816131e3565b92915050565b600081359050611f69816131fa565b92915050565b600081359050611f7e81613211565b92915050565b600081519050611f9381613211565b92915050565b600082601f830112611faa57600080fd5b8135611fba848260208601611ec9565b91505092915050565b600082601f830112611fd457600080fd5b8135611fe4848260208601611f07565b91505092915050565b600081359050611ffc81613228565b92915050565b60006020828403121561201457600080fd5b600061202284828501611f45565b91505092915050565b6000806040838503121561203e57600080fd5b600061204c85828601611f45565b925050602061205d85828601611f45565b9150509250929050565b60008060006060848603121561207c57600080fd5b600061208a86828701611f45565b935050602061209b86828701611f45565b92505060406120ac86828701611fed565b9150509250925092565b600080600080608085870312156120cc57600080fd5b60006120da87828801611f45565b94505060206120eb87828801611f45565b93505060406120fc87828801611fed565b925050606085013567ffffffffffffffff81111561211957600080fd5b61212587828801611f99565b91505092959194509250565b6000806040838503121561214457600080fd5b600061215285828601611f45565b925050602061216385828601611f5a565b9150509250929050565b6000806040838503121561218057600080fd5b600061218e85828601611f45565b925050602061219f85828601611fed565b9150509250929050565b6000602082840312156121bb57600080fd5b60006121c984828501611f6f565b91505092915050565b6000602082840312156121e457600080fd5b60006121f284828501611f84565b91505092915050565b60006020828403121561220d57600080fd5b600082013567ffffffffffffffff81111561222757600080fd5b61223384828501611fc3565b91505092915050565b60006020828403121561224e57600080fd5b600061225c84828501611fed565b91505092915050565b61226e81612fb4565b82525050565b61227d81612fc6565b82525050565b600061228e82612e5c565b6122988185612e72565b93506122a8818560208601613037565b6122b1816131d2565b840191505092915050565b60006122c782612e67565b6122d18185612e83565b93506122e1818560208601613037565b6122ea816131d2565b840191505092915050565b600061230082612e67565b61230a8185612e94565b935061231a818560208601613037565b80840191505092915050565b600081546123338161306a565b61233d8186612e94565b9450600182166000811461235857600181146123695761239c565b60ff1983168652818601935061239c565b61237285612e47565b60005b8381101561239457815481890152600182019150602081019050612375565b838801955050505b50505092915050565b60006123b2603283612e83565b91507f4552433732313a207472616e7366657220746f206e6f6e20455243373231526560008301527f63656976657220696d706c656d656e74657200000000000000000000000000006020830152604082019050919050565b6000612418602683612e83565b91507f4f776e61626c653a206e6577206f776e657220697320746865207a65726f206160008301527f64647265737300000000000000000000000000000000000000000000000000006020830152604082019050919050565b600061247e602283612e83565b91507f4d757374206d696e74206174206c65617374206f6e652046756e6b7950697a7a60008301527f61210000000000000000000000000000000000000000000000000000000000006020830152604082019050919050565b60006124e4601c83612e83565b91507f4552433732313a20746f6b656e20616c7265616479206d696e746564000000006000830152602082019050919050565b6000612524602483612e83565b91507f4552433732313a207472616e7366657220746f20746865207a65726f2061646460008301527f72657373000000000000000000000000000000000000000000000000000000006020830152604082019050919050565b600061258a601983612e83565b91507f4552433732313a20617070726f766520746f2063616c6c6572000000000000006000830152602082019050919050565b60006125ca602c83612e83565b91507f4552433732313a206f70657261746f7220717565727920666f72206e6f6e657860008301527f697374656e7420746f6b656e00000000000000000000000000000000000000006020830152604082019050919050565b6000612630603883612e83565b91507f4552433732313a20617070726f76652063616c6c6572206973206e6f74206f7760008301527f6e6572206e6f7220617070726f76656420666f7220616c6c00000000000000006020830152604082019050919050565b6000612696602a83612e83565b91507f4552433732313a2062616c616e636520717565727920666f7220746865207a6560008301527f726f2061646472657373000000000000000000000000000000000000000000006020830152604082019050919050565b60006126fc602983612e83565b91507f4552433732313a206f776e657220717565727920666f72206e6f6e657869737460008301527f656e7420746f6b656e00000000000000000000000000000000000000000000006020830152604082019050919050565b6000612762602083612e83565b91507f4552433732313a206d696e7420746f20746865207a65726f20616464726573736000830152602082019050919050565b60006127a2602c83612e83565b91507f4552433732313a20617070726f76656420717565727920666f72206e6f6e657860008301527f697374656e7420746f6b656e00000000000000000000000000000000000000006020830152604082019050919050565b6000612808602a83612e83565b91507f4d617820737570706c79206f662046756e6b792050697a7a617320616c72656160008301527f6479206d696e74656421000000000000000000000000000000000000000000006020830152604082019050919050565b600061286e600583612e94565b91507f2e6a736f6e0000000000000000000000000000000000000000000000000000006000830152600582019050919050565b60006128ae602883612e83565b91507f4e6f7420656e6f7567682045544820737570706c69656420666f72207472616e60008301527f73616374696f6e210000000000000000000000000000000000000000000000006020830152604082019050919050565b6000612914602083612e83565b91507f4f776e61626c653a2063616c6c6572206973206e6f7420746865206f776e65726000830152602082019050919050565b6000612954602983612e83565b91507f4552433732313a207472616e73666572206f6620746f6b656e2074686174206960008301527f73206e6f74206f776e00000000000000000000000000000000000000000000006020830152604082019050919050565b60006129ba602183612e83565b91507f4552433732313a20617070726f76616c20746f2063757272656e74206f776e6560008301527f72000000000000000000000000000000000000000000000000000000000000006020830152604082019050919050565b6000612a20603183612e83565b91507f4552433732313a207472616e736665722063616c6c6572206973206e6f74206f60008301527f776e6572206e6f7220617070726f7665640000000000000000000000000000006020830152604082019050919050565b612a828161301e565b82525050565b6000612a948285612326565b9150612aa082846122f5565b9150612aab82612861565b91508190509392505050565b6000602082019050612acc6000830184612265565b92915050565b6000608082019050612ae76000830187612265565b612af46020830186612265565b612b016040830185612a79565b8181036060830152612b138184612283565b905095945050505050565b6000602082019050612b336000830184612274565b92915050565b60006020820190508181036000830152612b5381846122bc565b905092915050565b60006020820190508181036000830152612b74816123a5565b9050919050565b60006020820190508181036000830152612b948161240b565b9050919050565b60006020820190508181036000830152612bb481612471565b9050919050565b60006020820190508181036000830152612bd4816124d7565b9050919050565b60006020820190508181036000830152612bf481612517565b9050919050565b60006020820190508181036000830152612c148161257d565b9050919050565b60006020820190508181036000830152612c34816125bd565b9050919050565b60006020820190508181036000830152612c5481612623565b9050919050565b60006020820190508181036000830152612c7481612689565b9050919050565b60006020820190508181036000830152612c94816126ef565b9050919050565b60006020820190508181036000830152612cb481612755565b9050919050565b60006020820190508181036000830152612cd481612795565b9050919050565b60006020820190508181036000830152612cf4816127fb565b9050919050565b60006020820190508181036000830152612d14816128a1565b9050919050565b60006020820190508181036000830152612d3481612907565b9050919050565b60006020820190508181036000830152612d5481612947565b9050919050565b60006020820190508181036000830152612d74816129ad565b9050919050565b60006020820190508181036000830152612d9481612a13565b9050919050565b6000602082019050612db06000830184612a79565b92915050565b6000604051905081810181811067ffffffffffffffff82111715612ddd57612ddc6131a3565b5b8060405250919050565b600067ffffffffffffffff821115612e0257612e016131a3565b5b601f19601f8301169050602081019050919050565b600067ffffffffffffffff821115612e3257612e316131a3565b5b601f19601f8301169050602081019050919050565b60008190508160005260206000209050919050565b600081519050919050565b600081519050919050565b600082825260208201905092915050565b600082825260208201905092915050565b600081905092915050565b6000612eaa8261301e565b9150612eb58361301e565b9250827fffffffffffffffffffffffffffffffffffffffffffffffffffffffffffffffff03821115612eea57612ee9613116565b5b828201905092915050565b6000612f008261301e565b9150612f0b8361301e565b925082612f1b57612f1a613145565b5b828204905092915050565b6000612f318261301e565b9150612f3c8361301e565b9250817fffffffffffffffffffffffffffffffffffffffffffffffffffffffffffffffff0483118215151615612f7557612f74613116565b5b828202905092915050565b6000612f8b8261301e565b9150612f968361301e565b925082821015612fa957612fa8613116565b5b828203905092915050565b6000612fbf82612ffe565b9050919050565b60008115159050919050565b60007fffffffff0000000000000000000000000000000000000000000000000000000082169050919050565b600073ffffffffffffffffffffffffffffffffffffffff82169050919050565b6000819050919050565b82818337600083830152505050565b60005b8381101561305557808201518184015260208101905061303a565b83811115613064576000848401525b50505050565b6000600282049050600182168061308257607f821691505b6020821081141561309657613095613174565b5b50919050565b60006130a78261301e565b91507fffffffffffffffffffffffffffffffffffffffffffffffffffffffffffffffff8214156130da576130d9613116565b5b600182019050919050565b60006130f08261301e565b91506130fb8361301e565b92508261310b5761310a613145565b5b828206905092915050565b7f4e487b7100000000000000000000000000000000000000000000000000000000600052601160045260246000fd5b7f4e487b7100000000000000000000000000000000000000000000000000000000600052601260045260246000fd5b7f4e487b7100000000000000000000000000000000000000000000000000000000600052602260045260246000fd5b7f4e487b7100000000000000000000000000000000000000000000000000000000600052604160045260246000fd5b6000601f19601f8301169050919050565b6131ec81612fb4565b81146131f757600080fd5b50565b61320381612fc6565b811461320e57600080fd5b50565b61321a81612fd2565b811461322557600080fd5b50565b6132318161301e565b811461323c57600080fd5b5056fea26469706673582212209526131dbdd879bf7bdc7d7e9dcab3b5a590be4175e9f770e2bc1a03abfa88a364736f6c63430008000033",
  "linkReferences": {},
  "deployedLinkReferences": {}
}